:020000040000FA
:060000009EEF16F0120055
:020006000000F8
:080008000000000000000000F0
:1000100000000000000000000000000000000000E0
:1000200000000000000000000000000000000000D0
:1000300000000000000000000000000000000000C0
:1004B000000000000000000078007800780078005C
:1004C000780078007800780078007800780078006C
:1004D000780078007800780078007800780078005C
:1004E00078007800780078007800000000000000B4
:1004F00000000000000000000000000000000000FC
:1005000000000000000000000000000000000000EB
:1005100000000000000000000000000000000000DB
:1005200000000000000000000000000000000000CB
:1005300000000000000000000000000000000000BB
:1005400000000000000000000000000000000000AB
:1005500000000000000000000000000078007800AB
:1005600078007800780078007800780078007800CB
:1005700078007800780078007800780078007800BB
:100580007800780078007800780078007800000023
:10059000000000000000000000000000000000005B
:1005A000000000000000000000000000000000004B
:1005B000000000000000000000000000000000003B
:1005C000000000000000000000000000000000002B
:1005D000000000000000000000000000000000001B
:1005E000000000000000000000000000000000000B
:1005F00000000000000000000000000000000000FB
:10060000780078007800780078007800780078002A
:10061000780078007800780078007800780078001A
:10062000780078007800780078007800780078000A
:100630007800000000000000000000000000000042
:1006400000000000000000000000000000000000AA
:10065000000000000000000000000000000000009A
:10066000000000000000000000000000000000008A
:10067000000000000000000000000000000000007A
:10068000000000000000000000000000000000006A
:10069000000000000000000000000000000000005A
:1006A000000000007800780078007800780078007A
:1006B000780078007800780078007800780078007A
:1006C000780078007800780078007800780078006A
:1006D00078007800780000000000000000000000B2
:1006E000000000000000000000000000000000000A
:1006F00000000000000000000000000000000000FA
:1007000000000000000000000000000000000000E9
:1007100000000000000000000000000000000000D9
:1007200000000000000000000000000000000000C9
:1007300000000000000000000000000000000000B9
:1007400000000000000000007800780078007800C9
:1007500078007800780078007800780078007800D9
:1007600078007800780078007800780078007800C9
:100770007800780078007800780000000000000021
:100780000000000000000000000000000000000069
:100790000000000000000000000000000000000059
:1007A0000000000000000000000000000000000049
:1007B0000000000000000000000000000000000039
:1007C0000000000000000000000000000000000029
:1007D0000000000000000000000000000000000019
:1007E0000000000000000000000000007800780019
:1007F0007800780078007800780078007800780039
:100800007800780078007800780078007800780028
:100810007800780078007800780078007800000090
:1008200000000000000000000000000000000000C8
:1008300000000000000000000000000000000000B8
:1008400000000000000000000000000000000000A8
:100850000000000000000000000000000000000098
:100860000000000000000000000000000000000088
:100870000000000000000000000000000000000078
:100880000000000000000000000000000000000068
:100890007800780078007800780078007800780098
:1008A0007800780078007800780078007800780088
:1008B0007800780078007800780078007800780078
:1008C00078000000000000000000000000000000B0
:1008D0000000000000000000000000000000000018
:1008E0000000000000000000000000000000000008
:1008F00000000000000000000000000000000000F8
:1009000000000000000000000000000000000000E7
:1009100000000000000000000000000000000000D7
:1009200000000000000000000000000000000000C7
:1009300000000000780078007800780078007800E7
:1009400078007800780078007800780078007800E7
:1009500078007800780078007800780078007800D7
:10096000780078007800000000000000000000001F
:100970000000000000000000000000000000000077
:100980000000000000000000000000000000000067
:100990000000000000000000000000000000000057
:1009A0000000000000000000000000000000000047
:1009B0000000000000000000000000000000000037
:1009C0000000000000000000000000000000000027
:1009D0000000000000000000780078007800780037
:1009E0007800780078007800780078007800780047
:1009F0007800780078007800780078007800780037
:100A0000780078007800780078000000000000008E
:100A100000000000000000000000000000000000D6
:100A200000000000000000000000000000000000C6
:100A300000000000000000000000000000000000B6
:100A400000000000000000000000000000000000A6
:100A50000000000000000000000000000000000096
:100A60000000000000000000000000000000000086
:100A70000000000000000000000000007800780086
:100A800078007800780078007800780078007800A6
:100A90007800780078007800780078007800780096
:100AA00078007800780078007800780078000000FE
:100AB0000000000000000000000000000000000036
:100AC0000000000000000000000000000000000026
:100AD0000000000000000000000000000000000016
:100AE0000000000000000000000000000000000006
:100AF00000000000000000000000000000000000F6
:100B000000000000000000000000000000000000E5
:100B100000000000000000000000000000000000D5
:100B20007800780078007800780078007800780005
:100B300078007800780078007800780078007800F5
:100B400078007800780078007800780078007800E5
:100B5000780000000000000000000000000000001D
:100B60000000000000000000000000000000000085
:100B70000000000000000000000000000000000075
:100B80000000000000000000000000000000000065
:100B90000000000000000000000000000000000055
:100BA0000000000000000000000000000000000045
:100BB0000000000000000000000000000000000035
:100BC0000000000078007800780078007800780055
:100BD0007800780078007800780078007800780055
:100BE0007800780078007800780078007800780045
:100BF000780078007800000000000000000000008D
:100C000000000000000000000000000000000000E4
:100C100000000000000000000000000000000000D4
:100C200000000000000000000000000000000000C4
:100C300000000000000000000000000000000000B4
:100C400000000000000000000000000000000000A4
:100C50000000000000000000000000000000000094
:100C600000000000000000007800780078007800A4
:100C700078007800780078007800780078007800B4
:100C800078007800780078007800780078007800A4
:100C900078007800780078007800000000000000FC
:100CA0000000000000000000000000000000000044
:100CB0000000000000000000000000000000000034
:100CC0000000000000000000000000000000000024
:100CD0000000000000000000000000000000000014
:100CE0000000000000000000000000000000000004
:100CF00000000000000000000000000000000000F4
:100D000000000000000000000000000078007800F3
:100D10007800780078007800780078007800780013
:100D20007800780078007800780078007800780003
:100D3000780078007800780078007800780000006B
:100D400000000000000000000000000000000000A3
:100D50000000000000000000000000000000000093
:100D60000000000000000000000000000000000083
:100D70000000000000000000000000000000000073
:100D80000000000000000000000000000000000063
:100D90000000000000000000000000000000000053
:100DA0000000000000000000000000000000000043
:100DB0007800780078007800780078007800780073
:100DC0007800780078007800780078007800780063
:100DD0007800780078007800780078007800780053
:100DE000780000000000000000000000000000008B
:100DF00000000000000000000000000000000000F3
:100E000000000000000000000000000000000000E2
:100E100000000000000000000000000000000000D2
:100E200000000000000000000000000000000000C2
:100E300000000000000000000000000000000000B2
:100E400000000000000000000000000000000000A2
:100E500000000000780078007800780078007800C2
:100E600078007800780078007800780078007800C2
:100E700078007800780078007800780078007800B2
:100E800078007800780000000000000000000000FA
:100E90000000000000000000000000000000000052
:100EA0000000000000000000000000000000000042
:100EB0000000000000000000000000000000000032
:100EC0000000000000000000000000000000000022
:100ED0000000000000000000000000000000000012
:100EE0000000000000000000000000000000000002
:100EF0000000000000000000780078007800780012
:100F00007800780078007800780078007800780021
:100F10007800780078007800780078007800780011
:100F20007800780078007800780000000000000069
:100F300000000000000000000000000000000000B1
:100F400000000000000000000000000000000000A1
:100F50000000000000000000000000000000000091
:100F60000000000000000000000000000000000081
:100F70000000000000000000000000000000000071
:100F80000000000000000000000000000000000061
:100F90000000000000000000000000007800780061
:100FA0007800780078007800780078007800780081
:100FB0007800780078007800780078007800780071
:100FC00078007800780078007800780078000000D9
:100FD0000000000000000000000000000000000011
:100FE0000000000000000000000000000000000001
:100FF00000000000000000000000000000000000F1
:1010000000000000000000000000000000000000E0
:1010100000000000000000000000000000000000D0
:1010200000000000000000000000000000000000C0
:1010300000000000000000000000000000000000B0
:1010400078007800780078007800780078007800E0
:1010500078007800780078007800780078007800D0
:1010600078007800780078007800780078007800C0
:1010700078000000000000000000000000000000F8
:101080000000000000000000000000000000000060
:101090000000000000000000000000000000000050
:1010A0000000000000000000000000000000000040
:1010B0000000000000000000000000000000000030
:1010C0000000000000000000000000000000000020
:1010D0000000000000000000780078007800780030
:1010E0007800780078007800780078007800780040
:1010F0007800780078007800780078007800780030
:10110000780078007800780078007800780078001F
:10111000780078007800780078007800780078000F
:101120007800000000000000000000000000000047
:1011300000000000000000000000000000000000AF
:10114000000000000000000000000000000000009F
:10115000000000000000000000000000000000008F
:10116000000000000000000000000000000000007F
:1011700000000000000000000000000000007800F7
:10118000780078007800780078007800780078009F
:10119000780078007800780078007800780078008F
:1011A000780078007800780078007800780078007F
:1011B000780078007800780078007800780078006F
:1011C000780078000000000000000000000000002F
:1011D000000000000000000000000000000000000F
:1011E00000000000000000000000000000000000FF
:1011F00000000000000000000000000000000000EF
:1012000000000000000000000000000000000000DE
:1012100000000000000000000000000000000000CE
:1012200000000000780078007800780078007800EE
:1012300078007800780078007800780078007800EE
:1012400078007800780078007800780078007800DE
:1012500078007800780078007800780078007800CE
:101260007800780078000000000000000000000016
:10127000000000000000000000000000000000006E
:10128000000000000000000000000000000000005E
:10129000000000000000000000000000000000004E
:1012A000000000000000000000000000000000003E
:1012B000000000000000000000000000000000002E
:1012C00000000000000000000000780078007800B6
:1012D000780078007800780078007800780078004E
:1012E000780078007800780078007800780078003E
:1012F000780078007800780078007800780078002E
:1013000078007800780078000000000000000000FD
:1013100000000000000000000000000000000000CD
:1013200000000000000000000000000000000000BD
:1013300000000000000000000000000000000000AD
:10134000000000000000000000000000000000009D
:10135000000000000000000000000000000000008D
:10136000000000000000000000000000000000007D
:1013700078007800780078007800780078007800AD
:10138000780078007800780078007800780078009D
:10139000780078007800780078007800780078008D
:1013A00078007800780078007800000000000000E5
:1013B000000000000000000000000000000000002D
:1013C000000000000000000000000000000000001D
:1013D000000000000000000000000000000000000D
:1013E00000000000000000000000000000000000FD
:1013F00000000000000000000000000000000000ED
:1014000000000000000000000000000000000000DC
:101410000000000000007800780078007800780074
:1014200078007800780078007800780078007800FC
:1014300078007800780078007800780078007800EC
:1014400078007800780078007800780000000000CC
:10145000000000000000000000000000000000008C
:10146000000000000000000000000000000000007C
:10147000000000000000000000000000000000006C
:10148000000000000000000000000000000000005C
:10149000000000000000000000000000000000004C
:1014A000000000000000000000000000000000003C
:1014B000000000000000000000000000780078003C
:1014C000780078007800780078007800780078005C
:1014D000780078007800780078007800780078004C
:1014E00078007800780078007800780078000000B4
:1014F00000000000000000000000000000000000EC
:1015000000000000000000000000000000000000DB
:1015100000000000000000000000000000000000CB
:1015200000000000000000000000000000000000BB
:1015300000000000000000000000000000000000AB
:10154000000000000000000000000000000000009B
:10155000000000000000000000000000000000008B
:101560000000780078007800780078007800780033
:1015700078007800780078007800780078007800AB
:10158000780078007800780078007800780078009B
:10159000000000000000000000000000000000004B
:1015A000000000000000000000000000000000003B
:1015B000000000000000000000000000000000002B
:1015C000000000000000000000000000000000001B
:1015D000000000000000000000000000000000000B
:1015E00000000000000000000000000000000000FB
:1015F00000000000000000000000000000000000EB
:1016000000000000000000007800780078007800FA
:10161000780078007800780078007800780078000A
:1016200078007800780078007800780078007800FA
:101630007800000000000000000000000000000032
:10164000000000000000000000000000000000009A
:10165000000000000000000000000000000000008A
:10166000000000000000000000000000000000007A
:10167000000000000000000000000000000000006A
:10168000000000000000000000000000000000005A
:10169000000000000000000000000000000000004A
:1016A00000000000000000000000000000007800C2
:1016B000780078007800780078007800780078006A
:1016C000780078007800780078007800780078005A
:1016D000780078000000000000000000000000001A
:1016E00000000000000000000000000000000000FA
:1016F00000000000000000000000000000000000EA
:1017000000000000000000000000000000000000D9
:1017100000000000000000000000000000000000C9
:1017200000000000000000000000000000000000B9
:1017300000000000000000000000000000000000A9
:101740000000000000000000000000000000000099
:1017500000000000780078007800780078007800B9
:1017600078007800780078007800780078007800B9
:101770007800780078000000000000000000000001
:101780000000000000000000000000000000000059
:101790000000000000000000000000000000000049
:1017A0000000000000000000000000000000000039
:1017B0000000000000000000000000000000000029
:1017C0000000000000000000000000000000000019
:1017D0000000000000000000000000000000000009
:1017E00000000000000000000000000000000000F9
:1017F0000000000000000000000078007800780081
:101800007800780078007800780078007800780018
:1018100078007800780078000000000000000000E8
:1018200000000000000000000000000000000000B8
:1018300000000000000000000000000000000000A8
:101840000000000000000000000000000000000098
:101850000000000000000000000000000000000088
:101860000000000000000000000000000000000078
:101870000000000000000000000000000000000068
:101880000000000000000000000000000000000058
:101890000000000000000000000000000000000048
:1018A0007800780078007800780078007800780078
:1018B00078007800780078007800000000000000D0
:1018C0000000000000000000000000000000000018
:1018D0000000000000000000000000000000000008
:1018E00000000000000000000000000000000000F8
:1018F00000000000000000000000000000000000E8
:1019000000000000000000000000000000000000D7
:1019100000000000000000000000000000000000C7
:1019200000000000000000000000000000000000B7
:1019300000000000000000000000000000000000A7
:10194000000000000000780078007800780078003F
:1019500078007800780078007800780000000000B7
:101960000000000000000000000000000000000077
:101970000000000000000000000000000000000067
:101980000000000000000000000000000000000057
:101990000000000000000000000000000000000047
:1019A0000000000000000000000000000000000037
:1019B0000000000000000000000000000000000027
:1019C0000000000000000000000000000000000017
:1019D0000000000000000000000000000000000007
:1019E0000000000000000000000000007800780007
:1019F000780078007800780078007800780000009F
:101A000000000000000000000000000000000000D6
:101A100000000000000000000000000000000000C6
:101A200000000000000000000000000000000000B6
:101A300000000000000000000000000000000000A6
:101A40000000000000000000000000000000000096
:101A50000000000000000000000000000000000086
:101A60000000000000000000000000000000000076
:101A70000000000000000000000000000000000066
:101A80000000000000000000000000000000000056
:101A900000007800780078007800780078007800FE
:101AA0000000000000000000000000000000000036
:101AB0000000000000000000000000000000000026
:101AC0000000000000000000000000000000000016
:101AD0000000000000000000000000000000000006
:101AE00000000000000000000000000000000000F6
:101AF00000000000000000000000000000000000E6
:101B000000000000000000000000000000000000D5
:101B100000000000000000000000000000000000C5
:101B200000000000000000000000000000000000B5
:101B300000000000000000007800780078007800C5
:101B4000780000000000000000000000000000001D
:101B50000000000000000000000000000000000085
:101B60000000000000000000000000000000000075
:101B70000000000000000000000000000000000065
:101B80000000000000000000000000000000000055
:101B90000000000000000000000000000000000045
:101BA0000000000000000000000000000000000035
:101BB0000000000000000000000000000000000025
:101BC0000000000000000000000000000000000015
:101BD000000000000000000000000000000078008D
:101BE0007800780000000000000000000000000005
:101BF00000000000000000000000000000000000E5
:101C000000000000000000000000000000000000D4
:101C100000000000000000000000000000000000C4
:101C200000000000000000000000000000000000B4
:101C300000000000000000000000000000000000A4
:101C40000000000000000000000000000000000094
:101C50000000000000000000000000000000000084
:101C60000000000000000000000000000000000074
:101C70000000000000000000000000000000000064
:101C800000000000780000000000000000000000DC
:101C90000000000000000000000000000000000044
:101CA0000000000000000000000000000000000034
:101CB0000000000000000000000000000000000024
:101CC0000000000000000000000000000000000014
:08215800330EE66EE66A780E14
:10216000E66ED9EC15F0E552E552E552F40EE66E56
:102170007DEC16F0E552B89AB8981200D9CFE6FF78
:10218000E1CFD9FF080EE126FD0EDBCF00F0FE0EF9
:10219000FDEC14F004E6640E005C000E015840E310
:1021A000640E1EEC15F016EC15F04AC0DEFF4BC0B5
:1021B000DDFFDECF00F0DDCF01F0300E0026000E97
:1021C000012200C0DEFF01C0DDFF25EC15F0640E2A
:1021D000DFDB0A0E006E016A060EDBCF4AF0070E47
:1021E000C1DB640ED5DB060EDBCF00F0070EDBCFC4
:1021F00001F00A0E0BEC15F0040E46C0DBFF050ED5
:1022000047C0DBFF300EE76E040EDBCF00F0050E9B
:10221000ECDBE5DBDFCFE6FF50EC16F0E5520DD04E
:102220000A0E1EEC15F09EDB0A0EB2DB300EE76ED6
:10223000060EDBCF00F0070ED8DBD1DB020EDBCFC2
:10224000E6FF50EC16F0E552CADB040EDBCFE6FFEA
:1022500050EC16F0E552200EE66E50EC16F0E5520A
:10226000080EE15C02E2E16AE552E16EE552E7CF79
:10227000D9FF1200D9CFE6FFE1CFD9FF2E0EE1261C
:10228000010EDE6EDD6A020EDB6A030EDB6A040EEF
:10229000DB68050EDB68010EF36E060EF3CFDBFF85
:1022A000070EDB6A080EDB6A090EDB6A0A0EDB68C2
:1022B0000B0EDB68010EF36E0C0EF3CFDBFF0D0E81
:1022C000DB6A0E0EDB6A0F0EDB6A100EDB68110E86
:1022D000DB68120EDB68130EDB68140EDB68150E6C
:1022E000DB68160EDB68170EDB68180EDB6A190E4A
:1022F000DB6A1A0EDB6A1B0EDB6A1C0EDB6A1D0E24
:10230000DB6A010EF36E1E0EF3CFDBFF1F0EDB6ADE
:10231000010EF36E200EF3CFDBFF210EDB6A010E00
:10232000F36E220EF3CFDBFF230EDB6A240EDB6A93
:10233000250EDB6A260EDB6A270EDB6A280EDB6AB7
:10234000290EDB6A010EF36E2A0EF3CFDBFF2B0E94
:10235000DB6A2A0EDBCF00F02B0E4FDB04E6330ED8
:10236000005C000E015801E3F0D0010EF36E2C0E5C
:10237000F3CFDBFF2D0EDB6A2C0EDBCF00F02D0E32
:102380003CDB04E6510E005C000E015801E3D5D0A1
:10239000BADA12C04AF013C04BF0DECF4FF0DDCFF7
:1023A00050F087DA020EDBCF4AF0030E27D9040E75
:1023B000DBCF4AF0050E14DA060EDBCF4AF0070E2B
:1023C00049DA080EDBCF4AF0090ECDD90A0EDBCF71
:1023D0004AF00B0E53D90C0EDBCF4AF00D0E8ED9FE
:1023E0000E0EDBCF4AF00F0EC6D8100EDBCF4AF030
:1023F000110EE6DA240E00C0DBFF250E01C0DBFF64
:1024000082DA120EDBCF4AF0130EDBCF4BF012C094
:102410004FF013C050F04DDA140EDBCF4AF0150E1A
:10242000EDD8160EDBCF4AF0170EDAD9180EDBCF37
:102430004AF0190E0FDA1A0EDBCF4AF01B0E93D9B1
:102440001C0EDBCF4AF01D0E19D91E0EDBCF4AF051
:102450001F0E54D9200EDBCF4AF0210E8CD8220E4D
:10246000DBCF4AF0230EACDA260E00C0DBFF270ECE
:1024700001C0DBFF240EDBCF00F0250EDBCF01F027
:102480000001800E01140DE04A684B68240EDBCF7A
:102490004FF0250EE8DA240E48C0DBFF250E49C0B8
:1024A000DBFF260EDBCF00F0270EDBCF01F00001B3
:1024B000800E01140DE04A684B68260EDBCF4FF00A
:1024C000270ED1DA260E48C0DBFF270E49C0DBFFFE
:1024D000260EDBCF02F0270EDBCF03F0240EDB50FD
:1024E0000224006E250EDB500320016E280E00C072
:1024F000DBFF290E01C0DBFF280EDBCF00F0290E29
:10250000DBCF01F0013409E20050FF08000E015456
:1025100004E2280EDB68290EDB6A280EDBCFE6FF1B
:10252000290EDBCFE6FF2ADEE552E5522C0EDB2A30
:102530002D0E01E221D7DB2A1FD732DA2A0EDB2A41
:102540002B0E01E206D7DB2A04D72ADA2E0EE15C35
:1025500002E2E16AE552E16EE552E7CFD9FF1200EF
:10256000800E946E956E8C90F7DD39DA8C8082DE69
:102570008C9035DAFAD7DBCF4BF038C04FF039C04A
:1025800050F05DEC15F004504824026E05504920CF
:10259000036E010EE76E2A0EDBCF3EF02B0EDBCF73
:1025A0003FF0E7503E26000E3F22A40E3F02F3CF3D
:1025B0003FF03E02F3CF3EF0F4503F26080E3E2699
:1025C000000E3F22010EE76E2C0EDBCF40F02D0EE9
:1025D000DBCF41F0E7504026000E4122D890403634
:1025E00041363E504024F66E3F504120F76E0900C0
:1025F000F5CF3CF00800F5CF3DF01200DBCF4BF0FB
:1026000018C04FF019C050F05DEC15F01050482480
:102610000E6E115049200F6E2A0EDBCF1EF02B0ECE
:10262000DBCF1FF01E06000E1F5AA40E1F02F3CFB1
:102630001FF01E02F3CF1EF0F4501F26080E1E26B8
:10264000000E1F22010EE76E2C0EDBCF20F02D0EA8
:10265000DBCF21F0E7502026000E2122D890203633
:1026600021361E502024F66E1F502120F76E0900DF
:10267000F5CF1CF00800F5CF1DF01200DBCF4BF0BA
:102680002CC04FF02DC050F05DEC15F008504824E0
:10269000066E09504920076E010EE76E2A0EDBCF49
:1026A00034F02B0EDBCF35F0E7503426000E352208
:1026B000A40E3502F3CF35F03402F3CF34F0F450EA
:1026C0003526080E3426000E35222C0EDBCF36F0D0
:1026D0002D0EDBCF37F03606000E375AD89036363F
:1026E000373634503624F66E35503720F76E0900F1
:1026F000F5CF32F00800F5CF33F01200DBCF4BF00E
:1027000032C04FF033C050F05DEC15F00650482455
:10271000046E07504920056E010EE76E2A0EDBCFCE
:102720003AF02B0EDBCF3BF0E7503A26000E3B226F
:10273000A40E3B02F3CF3BF03A02F3CF3AF0F45051
:102740003B26080E3A26000E3B225CD93A5048241C
:10275000F66E3B504920F76E0900F5CF38F00800BF
:10276000F5CF39F01200DBCF4BF028C04FF029C075
:1027700050F05DEC15F00A504824086E0B504920CB
:10278000096E2A0EDBCF2EF02B0EDBCF2FF0A40E1E
:102790002F02F3CF2FF02E02F3CF2EF0F4502F267E
:1027A000080E2E26000E2F22010EE76E2C0EDBCF18
:1027B00030F02D0EDBCF31F0E7503026000E312205
:1027C000D890303631362E503024F66E2F503120CE
:1027D000F76E0900F5CF2CF00800F5CF2DF01200B0
:1027E000DBCF4BF01CC04FF01DC050F05DEC15F07E
:1027F0000E5048240C6E0F5049200D6E2A0EDBCF70
:1028000024F02B0EDBCF25F0A40E2502F3CF25F00C
:102810002402F3CF24F0F4502526080E2426000EBF
:1028200025222C0EDBCF26F02D0EDBCF27F026063F
:10283000000E275AD8902636273624502624F66EC6
:1028400025502720F76E0900F5CF22F00800F5CFBC
:1028500023F01200DBCF4BF022C04FF023C050F02A
:102860005DEC15F00C5048240A6E0D5049200B6E9B
:102870002A0EDBCF2AF02B0EDBCF2BF0A40E2B027F
:10288000F3CF2BF02A02F3CF2AF0F4502B26080EB8
:102890002A26000E2B22B6D82A504824F66E2B503A
:1028A0004920F76E0900F5CF28F00800F5CF29F090
:1028B00012005DEC15F048C010F049C011F02A0E6E
:1028C000DBCF1AF02B0EDBCF1BF01A06000E1B5AC3
:1028D000A40E1B02F3CF1BF01A02F3CF1AF0F45030
:1028E0001B26080E1A26000E1B228CD81A504824CC
:1028F000F66E1B504920F76E0900F5CF18F008005E
:10290000F5CF19F012002A0EDBCF14F02B0EDBCF1F
:1029100015F01406000E155AA40E1502F3CF15F08B
:102920001402F3CF14F0F4501526080E1426000EEE
:1029300015222C0EDBCF16F02D0EDBCF17F016066E
:10294000000E175AD8901636173614501624F66E05
:1029500015501720F76E0900F5CF12F00800F5CFDB
:1029600013F0120063D8020E4AC0DBFF030E4BC007
:10297000DBFF300EE76E020EDBCF00F0030E6CD8EB
:10298000020E00C0DBFF030E01C0DBFF25EF15F0D8
:1029900042D8060E46C0DBFF070E47C0DBFF120021
:1029A000740E006E2D0E016E026A00C0E6FFE66E28
:1029B00002C0E6FF1EEC16F0E552E552E5521200A9
:1029C000DBCF4BF03CC04FF03DC050F05DEC15F05C
:1029D00002504824006E03504920016E1200640E1C
:1029E000E66EACEC16F0E552120036D8040E00C0CC
:1029F000DBFF050E01C0DBFF1200DBCF01F0D8903A
:102A000001501200020E4A6E4B6A2C0EDBCF4FF0C3
:102A10002D0E33EF15F04F6E506A00C04AF001C022
:102A20004BF037EC15F047C001F01200DBCF4BF054
:102A300000C04FF001C050F037EF15F0006E016A92
:102A4000FD0EDBCF4AF0FE0E1200FD0EDBCF00F0D4
:102A5000FE0EDBCF01F01200DBCF01F0E7500026C5
:0E2A6000000E01221200DBCF50F05DEF15F0EA
:022A6E00426ABA
:102A700050AE40EF15F04F6C501EE86A5022421ED7
:102A80004BAE48EF15F04A6C4B1EE86A4B22421ED3
:102A900067EC16F04BBE58EF15F042AE000C4A6CD6
:102AA0004B1EE86A4B22466C471EE86A4722000C20
:102AB00042BE4FEF15F04388FF0C4BC055F04AC0A3
:102AC00054F04A504F02F4CF49F0F3CF48F04B5046
:102AD0005002F4CF4BF0F3CF4AF04F02F3504926A7
:102AE000F4504A22E86A4B2254505002F3504926CF
:102AF000F4504A22E86A4B2250AE83EF15F054504E
:102B00004A5E55504B5A55AE000C4F504A5E5050DD
:042B10004B5A000C10
:0C2B1400060EF66E000EF76E000EF86E56
:102B200000010900F550656F0900F550666F03E17B
:102B3000656701D03DD00900F550606F0900F55080
:102B4000616F0900F550626F09000900F550E96EE8
:102B50000900F550EA6E090009000900F550636F9D
:102B60000900F550646F09000900F6CF67F0F7CF50
:102B700068F0F8CF69F060C0F6FF61C0F7FF62C08F
:102B8000F8FF0001635302E1645307E00900F550C8
:102B9000EE6E6307F8E26407F9D767C0F6FF68C016
:102BA000F7FF69C0F8FF00016507000E665BBFD73D
:022BB000120011
:0E2BB200D9CFE6FFDACFE6FFE1CFD9FFE2CFC1
:102BC000DAFFAC6AAB6AFD0EDBB0AC88DBA202D0E8
:102BD000AC8CAB8CDBB4AC8EDBA602D0AB8801D066
:102BE000AB8ADBB8AC849E98DBBAAB86DBAC02D098
:102BF0009D8A01D09D9A9E9ADBAE02D09D8801D01D
:102C00009D98FB0EDB50AF6EFB0EFC0EDBCF01F090
:102C100001C000F0016A0050B06EAC8AAB8E949C8B
:102C2000948EAC50100B04E0AC50800B01E1948CFE
:0C2C3000E552E5CFDAFFE7CFD9FF120034
:042C3C00D9CFE6FF07
:102C4000DACFE6FFE1CFD9FFE2CFDAFFACA2FED7C1
:102C5000FB0EDBCFF6FFFC0EDBCFF7FFFD0EDBCF6D
:102C6000F8FF0800F550E66E50EC16F0E552D9502A
:102C7000FB0FE96EFF0EDA20EA6EEFCFF6FFEE2AC9
:102C8000EFCFF7FF000EEE22EFCFF8FFEE220800A5
:102C9000F550DCE1E552E5CFDAFFE7CFD9FF1200CE
:102CA000D9CFE6FFDACFE6FFE1CFD9FFE2CFDAFFF7
:102CB000ACAC04D0AC9000016AB3AC80FD0EDB502C
:0E2CC000AD6EE552E5CFDAFFE7CFD9FF120087
:022CCE00476A53
:102CD000466A100EE76ED8904A364B36463647366F
:102CE0004F50465C5050475805E34F50465E505099
:0A2CF000475A4A2AE72EF0D71200D7
:062CFA00D9CFE6FFDACF9E
:102D0000E6FFE1CFD9FFE2CFDAFFFD0EDB50B86E70
:0C2D1000E552E5CFDAFFE7CFD9FF120053
:042D1C00000EF36E44
:102D200000EE00F0080E01D81200EA6002D0EE6A50
:0C2D3000FCD7F350E9601200EE6AFCD7FB
:042D3C0013EE00F0A2
:102D400023EE00F0F86A439C8AEC15F0BCEC16F018
:082D5000B0EC12F0FBD71200F9
:082D5800FF0EE350566E1B0E46
:102D600000D001D0200EE76EE72EFED7562EFAD700
:042D700000D012007D
:032D74000D0A0045
:022D7800120047
:020000040030CA
:010001000CF2
:010002001FDE
:010003001EDE
:0100050001F9
:010006008178
:00000001FF
