:020000040000FA
:0600000008EF15F01200EC
:020006000000F8
:080008000000000000000000F0
:1000100000000000000000000000000000000000E0
:1000200000000000000000000000000000000000D0
:1000300000000000000000000000000000000000C0
:100490000000000000000000000000006400640094
:1004A000640064006400640064006400640064002C
:1004B000640064006400640064006400640064001C
:1004C0006400640064006400640064006400000070
:1004D000000000000000000000000000000000001C
:1004E000000000000000000000000000000000000C
:1004F00000000000000000000000000000000000FC
:1005000000000000000000000000000000000000EB
:1005100000000000000000000000000000000000DB
:1005200000000000000000000000000000000000CB
:1005300000000000000000000000000064006400F3
:10054000640064006400640064006400640064008B
:10055000640064006400640064006400640064007B
:1005600064006400640064006400640064000000CF
:10057000000000000000000000000000000000007B
:10058000000000000000000000000000000000006B
:10059000000000000000000000000000000000005B
:1005A000000000000000000000000000000000004B
:1005B000000000000000000000000000000000003B
:1005C000000000000000000000000000000000002B
:1005D0000000000000000000000000006400640053
:1005E00064006400640064006400640064006400EB
:1005F00064006400640064006400640064006400DB
:10060000640064006400640064006400640000002E
:1006100000000000000000000000000000000000DA
:1006200000000000000000000000000000000000CA
:1006300000000000000000000000000000000000BA
:1006400000000000000000000000000000000000AA
:10065000000000000000000000000000000000009A
:10066000000000000000000000000000000000008A
:1006700000000000000000000000000064006400B2
:10068000640064006400640064006400640064004A
:10069000640064006400640064006400640064003A
:1006A000640064006400640064006400640000008E
:1006B000000000000000000000000000000000003A
:1006C000000000000000000000000000000000002A
:1006D000000000000000000000000000000000001A
:1006E000000000000000000000000000000000000A
:1006F00000000000000000000000000000000000FA
:1007000000000000000000000000000000000000E9
:100710000000000000000000000000006400640011
:1007200064006400640064006400640064006400A9
:100730006400640064006400640064006400640099
:1007400064006400640064006400640064000000ED
:100750000000000000000000000000000000000099
:100760000000000000000000000000000000000089
:100770000000000000000000000000000000000079
:100780000000000000000000000000000000000069
:100790000000000000000000000000000000000059
:1007A0000000000000000000000000000000000049
:1007B0000000000000000000000000006400640071
:1007C0006400640064006400640064006400640009
:1007D00064006400640064006400640064006400F9
:1007E000640064006400640064006400640000004D
:1007F00000000000000000000000000000000000F9
:1008000000000000000000000000000000000000E8
:1008100000000000000000000000000000000000D8
:1008200000000000000000000000000000000000C8
:1008300000000000000000000000000000000000B8
:1008400000000000000000000000000000000000A8
:1008500000000000000000000000000064006400D0
:100860006400640064006400640064006400640068
:100870006400640064006400640064006400640058
:1008800064006400640064006400640064000000AC
:100890000000000000000000000000000000000058
:1008A0000000000000000000000000000000000048
:1008B0000000000000000000000000000000000038
:1008C0000000000000000000000000000000000028
:1008D0000000000000000000000000000000000018
:1008E0000000000000000000000000000000000008
:1008F0000000000000000000000000006400640030
:1009000064006400640064006400640064006400C7
:1009100064006400640064006400640064006400B7
:10092000640064006400640064006400640000000B
:1009300000000000000000000000000000000000B7
:1009400000000000000000000000000000000000A7
:100950000000000000000000000000000000000097
:100960000000000000000000000000000000000087
:100970000000000000000000000000000000000077
:100980000000000000000000000000000000000067
:10099000000000000000000000000000640064008F
:1009A0006400640064006400640064006400640027
:1009B0006400640064006400640064006400640017
:1009C000640064006400640064006400640000006B
:1009D0000000000000000000000000000000000017
:1009E0000000000000000000000000000000000007
:1009F00000000000000000000000000000000000F7
:100A000000000000000000000000000000000000E6
:100A100000000000000000000000000000000000D6
:100A200000000000000000000000000000000000C6
:100A300000000000000000000000000064006400EE
:100A40006400640064006400640064006400640086
:100A50006400640064006400640064006400640076
:100A600064006400640064006400640064000000CA
:100A70000000000000000000000000000000000076
:100A80000000000000000000000000000000000066
:100A90000000000000000000000000000000000056
:100AA0000000000000000000000000000000000046
:100AB0000000000000000000000000000000000036
:100AC0000000000000000000000000000000000026
:100AD000000000000000000000000000640064004E
:100AE00064006400640064006400640064006400E6
:100AF00064006400640064006400640064006400D6
:100B00006400640064006400640064006400000029
:100B100000000000000000000000000000000000D5
:100B200000000000000000000000000000000000C5
:100B300000000000000000000000000000000000B5
:100B400000000000000000000000000000000000A5
:100B50000000000000000000000000000000000095
:100B60000000000000000000000000000000000085
:100B700000000000000000000000000064006400AD
:100B80006400640064006400640064006400640045
:100B90006400640064006400640064006400640035
:100BA0006400640064006400640064006400000089
:100BB0000000000000000000000000000000000035
:100BC0000000000000000000000000000000000025
:100BD0000000000000000000000000000000000015
:100BE0000000000000000000000000000000000005
:100BF00000000000000000000000000000000000F5
:100C000000000000000000000000000000000000E4
:100C1000000000000000000000000000640064000C
:100C200064006400640064006400640064006400A4
:100C30006400640064006400640064006400640094
:100C400064006400640064006400640064000000E8
:100C50000000000000000000000000000000000094
:100C60000000000000000000000000000000000084
:100C70000000000000000000000000000000000074
:100C80000000000000000000000000000000000064
:100C90000000000000000000000000000000000054
:100CA0000000000000000000000000000000000044
:100CB000000000000000000000000000640064006C
:100CC0006400640064006400640064006400640004
:100CD00064006400640064006400640064006400F4
:100CE0006400640064006400640064006400000048
:100CF00000000000000000000000000000000000F4
:100D000000000000000000000000000000000000E3
:100D100000000000000000000000000000000000D3
:100D200000000000000000000000000000000000C3
:100D300000000000000000000000000000000000B3
:100D400000000000000000000000000000000000A3
:100D500000000000000000000000000064006400CB
:100D60006400640064006400640064006400640063
:100D70006400640064006400640064006400640053
:100D800064006400640064006400640064000000A7
:100D90000000000000000000000000000000000053
:100DA0000000000000000000000000000000000043
:100DB0000000000000000000000000000000000033
:100DC0000000000000000000000000000000000023
:100DD0000000000000000000000000000000000013
:100DE0000000000000000000000000000000000003
:100DF000000000000000000000000000640064002B
:100E000064006400640064006400640064006400C2
:100E100064006400640064006400640064006400B2
:100E20006400640064006400640064006400000006
:100E300000000000000000000000000000000000B2
:100E400000000000000000000000000000000000A2
:100E50000000000000000000000000000000000092
:100E60000000000000000000000000000000000082
:100E70000000000000000000000000000000000072
:100E80000000000000000000000000000000000062
:100E9000000000000000000000000000640064008A
:100EA0006400640064006400640064006400640022
:100EB0006400640064006400640064006400640012
:100EC0006400640064006400640064006400000066
:100ED0000000000000000000000000000000000012
:100EE0000000000000000000000000000000000002
:100EF00000000000000000000000000000000000F2
:100F000000000000000000000000000000000000E1
:100F100000000000000000000000000000000000D1
:100F200000000000000000000000000000000000C1
:100F300000000000000000000000000064006400E9
:100F40006400640064006400640064006400640081
:100F50006400640064006400640064006400640071
:100F600064006400640064006400640064000000C5
:100F70000000000000000000000000000000000071
:100F80000000000000000000000000000000000061
:100F90000000000000000000000000000000000051
:100FA0000000000000000000000000000000000041
:100FB0000000000000000000000000000000000031
:100FC0000000000000000000000000000000000021
:100FD0000000000000000000000000006400640049
:100FE00064006400640064006400640064006400E1
:100FF00064006400640064006400640064006400D1
:101000006400640064006400640064006400000024
:1010100000000000000000000000000000000000D0
:1010200000000000000000000000000000000000C0
:1010300000000000000000000000000000000000B0
:1010400000000000000000000000000000000000A0
:101050000000000000000000000000000000000090
:101060000000000000000000000000000000000080
:1010700000000000000000000000000064006400A8
:101080006400640064006400640064006400640040
:101090006400640064006400640064006400640030
:1010A0006400640064006400640064006400000084
:1010B0000000000000000000000000000000000030
:1010C0000000000000000000000000000000000020
:1010D0000000000000000000000000000000000010
:1010E0000000000000000000000000000000000000
:1010F00000000000000000000000000000000000F0
:1011000000000000000000000000000000000000DF
:101110000000000000000000000000006400640007
:10112000640064006400640064006400640064009F
:10113000640064006400640064006400640064008F
:1011400064006400640064006400640064000000E3
:10115000000000000000000000000000000000008F
:10116000000000000000000000000000000000007F
:10117000000000000000000000000000000000006F
:10118000000000000000000000000000000000005F
:10119000000000000000000000000000000000004F
:1011A000000000000000000000000000000000003F
:1011B0000000000000000000000000006400640067
:1011C00064006400640064006400640064006400FF
:1011D00064006400640064006400640064006400EF
:1011E0006400640064006400640064006400000043
:1011F00000000000000000000000000000000000EF
:1012000000000000000000000000000000000000DE
:1012100000000000000000000000000000000000CE
:1012200000000000000000000000000000000000BE
:1012300000000000000000000000000000000000AE
:10124000000000000000000000000000000000009E
:1012500000000000000000000000000064006400C6
:10126000640064006400640064006400640064005E
:10127000640064006400640064006400640064004E
:1012800064006400640064006400640064000000A2
:10129000000000000000000000000000000000004E
:1012A000000000000000000000000000000000003E
:1012B000000000000000000000000000000000002E
:1012C000000000000000000000000000000000001E
:1012D000000000000000000000000000000000000E
:1012E00000000000000000000000000000000000FE
:1012F0000000000000000000000000006400640026
:1013000064006400640064006400640064006400BD
:1013100064006400640064006400640064006400AD
:101320006400640064006400640064006400000001
:1013300000000000000000000000000000000000AD
:10134000000000000000000000000000000000009D
:10135000000000000000000000000000000000008D
:10136000000000000000000000000000000000007D
:10137000000000000000000000000000000000006D
:10138000000000000000000000000000000000005D
:101390000000000000000000000000006400640085
:1013A000640064006400640064006400640064001D
:1013B000640064006400640064006400640064000D
:1013C0006400640064006400640064006400000061
:1013D000000000000000000000000000000000000D
:1013E00000000000000000000000000000000000FD
:1013F00000000000000000000000000000000000ED
:1014000000000000000000000000000000000000DC
:1014100000000000000000000000000000000000CC
:1014200000000000000000000000000000000000BC
:1014300000000000000000000000000064006400E4
:10144000640064006400640064006400640064007C
:10145000640064006400640064006400640064006C
:1014600064006400640064006400640064000000C0
:10147000000000000000000000000000000000006C
:10148000000000000000000000000000000000005C
:10149000000000000000000000000000000000004C
:1014A000000000000000000000000000000000003C
:1014B000000000000000000000000000000000002C
:1014C000000000000000000000000000000000001C
:1014D0000000000000000000000000006400640044
:1014E00064006400640064006400640064006400DC
:1014F00064006400640064006400640064006400CC
:10150000640064006400640064006400640000001F
:1015100000000000000000000000000000000000CB
:1015200000000000000000000000000000000000BB
:1015300000000000000000000000000000000000AB
:10154000000000000000000000000000000000009B
:10155000000000000000000000000000000000008B
:10156000000000000000000000000000000000007B
:1015700000000000000000000000000064006400A3
:10158000640064006400640064006400640064003B
:10159000640064006400640064006400640064002B
:1015A000640064006400640064006400640000007F
:1015B000000000000000000000000000000000002B
:1015C000000000000000000000000000000000001B
:1015D000000000000000000000000000000000000B
:1015E00000000000000000000000000000000000FB
:1015F00000000000000000000000000000000000EB
:1016000000000000000000000000000000000000DA
:101610000000000000000000000000006400640002
:10162000640064006400640064006400640064009A
:10163000640064006400640064006400640064008A
:1016400064006400640064006400640064000000DE
:10165000000000000000000000000000000000008A
:10166000000000000000000000000000000000007A
:10167000000000000000000000000000000000006A
:10168000000000000000000000000000000000005A
:10169000000000000000000000000000000000004A
:1016A000000000000000000000000000000000003A
:1016B0000000000000000000000000006400640062
:1016C00064006400640064006400640064006400FA
:1016D00064006400640064006400640064006400EA
:1016E000640064006400640064006400640000003E
:1016F00000000000000000000000000000000000EA
:1017000000000000000000000000000000000000D9
:1017100000000000000000000000000000000000C9
:1017200000000000000000000000000000000000B9
:081F4800330EE66EE66A780E26
:101F5000E66E43EC14F0E552E552E552F40EE66EFF
:101F6000E7EC14F0E552B89AB8981200D9CFE6FF22
:101F7000E1CFD9FF0C0EE126FD0EDBCF08F0FE0EFF
:101F8000DBCF09F0080E08C0DBFF090E09C0DBFF3C
:101F9000FD0EDBCF14F0FE0EDBCF15F015343EE264
:101FA00014506408000E155439E2640E96DB84DB8D
:101FB000020E08C0DBFF030E09C0DBFF300EE76E28
:101FC000020EDBCF14F0030EB8DB020E14C0DBFFF1
:101FD000030E7ADB640E5BDA0A0E146E156ADBCF31
:101FE00008F00B0E34DA640E52DA0A0EDBCF14F06E
:101FF0000B0EDBCF15F00A0E08DB060E04C0DBFF6C
:10200000070E05C0DBFF300EE76E060EDBCF14F0C7
:10201000070E63DA93DA020E97DA0CD00A0E5DDB54
:1020200016DA0A0E34DA300EE76E0A0EDBCF14F041
:102030000B0E53DA83DA040E87DA80DA060E84DABE
:10204000200EE66EBAEC14F0E5520C0EE15C02E2F2
:10205000E16AE552E16EE552E7CFD9FF1200D9CF30
:10206000E6FFE1CFD9FF440EE126010EDE6EDD6A08
:10207000020EDB6A030EDB6A040EDB68050EDB680A
:10208000010EF36E060EF3CFDBFF070EDB6A080EC0
:10209000DB6A090EDB6A0A0EDB680B0EDB68010ED9
:1020A000F36E0C0EF3CFDBFF0D0EDB6A0E0EDB6A58
:1020B0000F0EDB6A100EDB68110EDB68120EDB6898
:1020C000130EDB68140EDB68150EDB68160EDB687A
:1020D000170EDB68180EDB6A190EDB6A1A0EDB6A54
:1020E0001B0EDB6A1C0EDB6A1D0EDB6A010EF36E33
:1020F0001E0EF3CFDBFF1F0EDB6A010EF36E200E08
:10210000F3CFDBFF210EDB6A010EF36E220EF3CF5D
:10211000DBFF230EDB6A00DA280EDB6A290EDB6A9E
:102120002A0EDB6A2B0EDB6A2C0EDB6A2D0EDB6AB5
:102130002A0EDB6A2B0EDB6A9ED9D890155004E676
:10214000320E145C000E155801E357D12C0EDB6AD9
:102150002D0EDB6A2C0EDBCF14F02D0ECCDA04E64C
:10216000500E145C000E155801E33FD184D91406BB
:10217000000E155AC5DA320ECBD9330E99DA140691
:10218000000E155A29DA340EC3D9350E91DA140629
:10219000000E155AB8DA360EBBD9370E89DAB0DA26
:1021A000380EB6D9390E84DA17DA3A0EB1D93B0EA9
:1021B0007FDAA9DA3C0EACD93D0EA8DAA1DA3E0EE0
:1021C000A7D93F0EA3DA08DA400EA2D9410E9EDA53
:1021D0009ADA420E9DD9430EF5CFDBFF2E0EDB6A55
:1021E0002F0EDB6A2E0EDBCF14F02F0E84DA04E6FE
:1021F000030E145C000E15582AE2300EDB6A310E15
:10220000DB6A300EDBCF14F0310E75DA04E6030E14
:10221000145C000E155815E2CBD90001800E151480
:1022200001E0D0D9C5D9153406E21450FF08000EDC
:10223000155401E2C7D9300EDB2A310EE2E3DB2A66
:10224000E0D72E0EDB2A2F0ECDE3DB2ACBD764D9C5
:10225000320EDBCF08F0330EDBCF09F0DECF0DF00E
:10226000DDCF0EF0C7EC13F006C024F007C025F058
:10227000020EDBCF08F0030ED3D9040EDBCF08F03B
:10228000050ED7D9060EDBCF08F0070EDBD9080EF6
:10229000DBCF08F0090EDFD90A0EDBCF08F00B0EFA
:1022A000E3D90C0EDBCF08F00D0EE7D90E0EDBCF15
:1022B00008F00F0EEBD9100EDBCF08F0110EEFD99E
:1022C000240E14C0DBFF250E15C0DBFF120EDBCF82
:1022D00008F0130EDBCF09F0320EDBCF0DF0330E1A
:1022E000AAD806C024F007C025F0140EDBCF08F0F2
:1022F000150E96D9160EDBCF08F0170E9AD9180EC8
:10230000DBCF08F0190E9ED91A0EDBCF08F01B0E9A
:10231000A2D91C0EDBCF08F01D0EA6D91E0EDBCFF6
:1023200008F01F0EAAD9200EDBCF08F0210EAED97F
:10233000220EDBCF08F0230EB2D9260E14C0DBFF2D
:10234000270E15C0DBFF240EDBCF14F0250EDBCFEC
:1023500015F00001800E15140DE008680968240EC0
:10236000DBCF0DF0250E67D8240E06C0DBFF250E4F
:1023700007C0DBFF260EDBCF14F0270EDBCF15F0F6
:102380000001800E15140DE008680968260EDBCFE9
:102390000DF0270E50D8260E06C0DBFF270E07C013
:1023A000DBFF260EDBCF16F0270EDBCF17F0240E57
:1023B000DB501624146E250EDB501720156E280EE8
:1023C00014C0DBFF290E15C0DBFF280EDBCFE6FFB4
:1023D000290EDBCFE6FFCADDE552E5522C0EDB2AE3
:1023E0002D0E01E2B7D6DB2AB5D659D82A0EDB2A44
:1023F0002B0E01E2A1D6DB2A9FD651D8440EE15C18
:1024000002E2E16AE552E16EE552E7CFD9FF120040
:10241000800E946E99DD2FEF10F0A00E1502F3CF11
:1024200015F01402F3CF14F0F4501526080E1426FC
:10243000000E15221200DBCF0EF0C7EF13F0010ED5
:10244000E76E52D9E7501626000E1722D3D034D9A2
:10245000040E08C0DBFF050E09C0DBFF300EE76E7F
:10246000040EDBCF14F0050E68D9040E14C0DBFF98
:10247000050E64EF13F02A0EDBCF14F02B0EDBCF2A
:1024800015F0120031D91606000E175AB3D0BDD878
:102490000A0E04C0DBFF0B0E05C0DBFF1200480E66
:1024A000146E2A0E156E166A14C0E6FFE66E16C08C
:1024B000E6FF88EC14F0E552E552E55212001850A0
:1024C0000624166E19500720176E120016500624A7
:1024D000146E17500720156E12002FD9060E14C067
:1024E000DBFF070E15C0DBFF120014500624F66E4A
:1024F00015500720F76E0900120016500624E96EE9
:1025000017500720EA6EEECF14F0EFCF15F012004F
:10251000F5CFDBFF0A001200240EDB6A250EDB6A12
:10252000260EDB6A270EDB6A120014500624E96EC1
:1025300015500720EA6EEE6AED6A1200640EE66E30
:1025400016EC15F0E5521200DBCFE6FFBAEC14F002
:10255000E5521200020E086E096A12002450062489
:10256000226E25500720236E120022500624206E72
:1025700023500720216E1200205006241E6E215089
:1025800007201F6E12001E5006241C6E1F500720CD
:102590001D6E12001C5006241A6E1D5007201B6E63
:1025A00012001A500624186E1B500720196E1200D4
:1025B000D950320F186EDACF19F0AFD880DFB6D805
:1025C0007DEF12F0D950320F166EDACF17F0A5D882
:1025D0007DDFACD895EF12F020DFBCDF2C0EDBCF17
:1025E0000DF02D0E28DF75EF12F0E7501426000EC7
:1025F00015221200D8901636173614501624F66E8F
:1026000015501720F76E090012000D6E0E6A14C0E7
:1026100008F015C009F0A1EC13F005C015F0120088
:10262000DBCF09F0340EDBCF0DF0350E04DFAEEF5B
:1026300012F0DBCF09F0360EDBCF0DF0370EFBDEEC
:10264000B5EF12F0DBCF09F0380EDBCF0DF0390E0D
:10265000F2DEBCEF12F0DBCF09F03A0EDBCF0DF06B
:102660003B0EE9DEC3EF12F0DBCF09F03C0EDBCF0F
:102670000DF03D0EE0DECAEF12F0DBCF09F03E0EAA
:10268000DBCF0DF03F0ED7DED1EF12F0DBCF09F03C
:10269000400EDBCF0DF0410ECEDE5FEF12F0DBCF50
:1026A00009F0420EDBCF0DF0430EC5DE66EF12F0EF
:1026B000F5CFDBFF3BEF12F0DBCF09F014C00DF0DC
:1026C00015C00EF0A1EF13F015C0DBFF080EDBCF35
:1026D00014F0090EDBCF15F01200146E156A080E07
:1026E000DBCF08F0090E12002C0EDBCF16F02D0EFA
:1026F000DBCF17F01200DBCF15F0D8901550120089
:102700008CDE42EF12F089DE1FEF12F0F5CFDBFF17
:10271000010EE76EB0DEF5EF12F0060E086E096AE4
:102720002E0EDBCF0DF02F0E1BEF12F013DF300E4D
:10273000DBCF0DF0310E1BEF12F0DBCF15F0F5EF14
:0227400012F095
:0E274200006A0EAEAAEF13F00D6C0E1EE86AD0
:102750000E22001E09AEB2EF13F0086C091EE86AE3
:102760000922001ED1EC14F009BEC2EF13F000AE36
:10277000000C086C091EE86A0922046C051EE86A50
:102780000522000C00BEB9EF13F00188FF0C09C050
:1027900013F008C012F008500D02F4CF07F0F3CF89
:1027A00006F009500E02F4CF09F0F3CF08F00D0245
:1027B000F3500726F4500822E86A092212500E024C
:1027C000F3500726F4500822E86A09220EAEEDEF16
:1027D00013F01250085E1350095A13AE000C0D503E
:0827E000085E0E50095A000CBE
:0827E800060EF66E000EF76EFE
:1027F000000EF86E00010900F550656F0900F550F4
:10280000666F03E1656701D03DD00900F550606F48
:102810000900F550616F0900F550626F0900090069
:10282000F550E96E0900F550EA6E0900090009004B
:10283000F550636F0900F550646F09000900F6CF89
:1028400067F0F7CF68F0F8CF69F060C0F6FF61C0BD
:10285000F7FF62C0F8FF0001635302E1645307E031
:102860000900F550EE6E6307F8E26407F9D767C018
:10287000F6FF68C0F7FF69C0F8FF00016507000EAA
:06288000665BBFD71200E9
:0A288600D9CFE6FFDACFE6FFE1CF7D
:10289000D9FFE2CFDAFFAC6AAB6AFD0EDBB0AC88E1
:1028A000DBA202D0AC8CAB8CDBB4AC8EDBA602D04E
:1028B000AB8801D0AB8ADBB8AC849E98DBBAAB8620
:1028C000DBAC02D09D8A01D09D9A9E9ADBAE02D0ED
:1028D0009D8801D09D98FB0EDB50AF6EFB0EFC0E69
:1028E000DBCF15F015C014F0156A1450B06EAC8A29
:1028F000AB8E949C948EAC50100B04E0AC50800BCB
:1029000001E1948CE552E5CFDAFFE7CFD9FF120061
:10291000D9CFE6FFDACFE6FFE1CFD9FFE2CFDAFF8A
:10292000ACA2FED7FB0EDBCFF6FFFC0EDBCFF7FF32
:10293000FD0EDBCFF8FF0800F550E66EBAEC14F0A0
:10294000E552D950FB0FE96EFF0EDA20EA6EEFCFA9
:10295000F6FFEE2AEFCFF7FF000EEE22EFCFF8FFE3
:10296000EE220800F550DCE1E552E5CFDAFFE7CFD3
:04297000D9FF120079
:0C297400D9CFE6FFDACFE6FFE1CFD9FFB4
:10298000E2CFDAFFACAC04D0AC9000016AB3AC800B
:10299000FD0EDB50AD6EE552E5CFDAFFE7CFD9FF94
:0229A000120023
:0E29A200056A046A100EE76ED89008360936F2
:1029B000043605360D50045C0E50055805E30D50E5
:0E29C000045E0E50055A082AE72EF0D71200CA
:0229CE00D9CF5F
:1029D000E6FFDACFE6FFE1CFD9FFE2CFDAFFFD0E67
:1029E000DB50B86EE552E5CFDAFFE7CFD9FF120032
:1029F000000EF36E00EE00F0080E01D81200EA603F
:102A000002D0EE6AFCD7F350E9601200EE6AFCD700
:102A100013EE00F023EE00F0F86A019CF4EC13F0E2
:0C2A200026EC15F008EC12F0FBD71200B9
:042A2C00FF0EE35066
:102A3000266E1B0E00D001D0200EE76EE72EFED7CB
:082A4000262EFAD700D0120087
:032A48000D0A0074
:022A4C00120076
:020000040030CA
:010001000CF2
:010002001FDE
:010003001EDE
:0100050001F9
:010006008178
:00000001FF
