:020000040000FA
:06000000CFEF0CF012002E
:020006000000F8
:080008000000000000000000F0
:1000100000000000000000000000000000000000E0
:1000200000000000000000000000000000000000D0
:1000300000000000000000000000000000000000C0
:1002500000004646464646464646464646464646CA
:10026000464646464646464646464600000000008C
:10027000000000000000000000000000000000007E
:10028000000000000000000000000000000000006E
:10029000000000000000000000000000000000005E
:1002A000000046464646464646464646464646467A
:1002B000464646464646464646464600000000003C
:1002C000000000000000000000000000000000002E
:1002D000000000000000000000000000000000001E
:1002E000000000000000000000000000000000000E
:1002F000000046464646464646464646464646462A
:1003000046464646464646464646460000000000EB
:1003100000000000000000000000000000000000DD
:1003200000000000000000000000000000000000CD
:1003300000000000000000000000000000000000BD
:1003400000004646464646464646464646464646D9
:10035000464646464646464646464600000000009B
:10036000000000000000000000000000000000008D
:10037000000000000000000000000000000000007D
:10038000000000000000000000000000000000006D
:100390000000464646464646464646464646464689
:1003A000464646464646464646464600000000004B
:1003B000000000000000000000000000000000003D
:1003C000000000000000000000000000000000002D
:1003D000000000000000000000000000000000001D
:1003E0000000464646464646464646464646464639
:1003F00046464646464646464646460000000000FB
:1004000000000000000000000000000000000000EC
:1004100000000000000000000000000000000000DC
:1004200000000000000000000000000000000000CC
:1004300000004646464646464646464646464646E8
:1004400046464646464646464646460000000000AA
:10045000000000000000000000000000000000009C
:10046000000000000000000000000000000000008C
:10047000000000000000000000000000000000007C
:100480000000464646464646464646464646464698
:10049000464646464646464646464600000000005A
:1004A000000000000000000000000000000000004C
:1004B000000000000000000000000000000000003C
:1004C000000000000000000000000000000000002C
:1004D0000000464646464646464646464646464648
:1004E000464646464646464646464600000000000A
:1004F00000000000000000000000000000000000FC
:1005000000000000000000000000000000000000EB
:1005100000000000000000000000000000000000DB
:1005200000004646464646464646464646464646F7
:1005300046464646464646464646460000000000B9
:1005400000000000000000000000000000000000AB
:10055000000000000000000000000000000000009B
:10056000000000000000000000000000000000008B
:1005700000004646464646464646464646464646A7
:100580004646464646464646464646000000000069
:10059000000000000000000000000000000000005B
:1005A000000000000000000000000000000000004B
:1005B000000000000000000000000000000000003B
:1005C0000000464646464646464646464646464657
:1005D0004646464646464646464646000000000019
:1005E000000000000000000000000000000000000B
:1005F00000000000000000000000000000000000FB
:1006000000000000000000000000000000000000EA
:100610000000464646464646464646464646464606
:1006200046464646464646464646460000000000C8
:1006300000000000000000000000000000000000BA
:1006400000000000000000000000000000000000AA
:10065000000000000000000000000000000000009A
:1006600000004646464646464646464646464646B6
:100670004646464646464646464646000000000078
:10068000000000000000000000000000000000006A
:10069000000000000000000000000000000000005A
:1006A000000000000000000000000000000000004A
:1006B0000000464646464646464646464646464666
:1006C0004646464646464646464646000000000028
:1006D000000000000000000000000000000000001A
:1006E000000000000000000000000000000000000A
:1006F00000000000000000000000000000000000FA
:100700000000464646464646464646464646464615
:1007100046464646464646464646460000000000D7
:1007200000000000000000000000000000000000C9
:1007300000000000000000000000000000000000B9
:1007400000000000000000000000000000000000A9
:1007500000004646464646464646464646464646C5
:100760004646464646464646464646000000000087
:100770000000000000000000000000000000000079
:100780000000000000000000000000000000000069
:100790000000000000000000000000000000000059
:1007A0000000464646464646464646464646464675
:1007B0004646464646464646464646000000000037
:1007C0000000000000000000000000000000000029
:1007D0000000000000000000000000000000000019
:1007E0000000000000000000000000000000000009
:1007F0000000464646464646464646464646464625
:1008000046464646464646464646460000000000E6
:1008100000000000000000000000000000000000D8
:1008200000000000000000000000000000000000C8
:1008300000000000000000000000000046464646A0
:100840004646464646464646464646464646464648
:100850004646464646464646464646464646464638
:100860004600000000000000000000000000000042
:100870000000000000000000000000000000000078
:100880000000000000000000000000000046464696
:1008900046464646464646464646464646464646F8
:1008A00046464646464646464646464646464646E8
:1008B0000000000000000000000000000000000038
:1008C0000000000000000000000000000000000028
:1008D000000000000000000000000000000046468C
:1008E00046464646464646464646464646464646A8
:1008F00046464646464646464646464646464600DE
:1009000000000000000000000000000000000000E7
:1009100000000000000000000000000000000000D7
:100920000000000000000000000000000000004681
:100930004646464646464646464646464646464657
:1009400046464646464646464646464646460000D3
:100950000000000000000000000000000000000097
:100960000000000000000000000000000000000087
:100970000000000000000000000000000000000077
:100980004646464646464646464646464646464607
:1009900046464646464646464646464646000000C9
:1009A0000000000000000000000000000000000047
:1009B0000000000000000000000000000000000037
:1009C0000000000000000000000000000000000027
:1009D00000464646464646464646464646464646FD
:1009E00046464646464646464646464600000000BF
:1009F00000000000000000000000000000000000F7
:100A000000000000000000000000000000000000E6
:100A100000000000000000000000000000000000D6
:100A200000004646464646464646464646464646F2
:100A300046464646464646464646460000000000B4
:100A400000000000000000000000000000000000A6
:100A50000000000000000000000000000000000096
:100A60000000000000000000000000000000000086
:100A700000000046464646464646464646464646E8
:100A800046464646464646464646000000000000AA
:100A90000000000000000000000000000000000056
:100AA0000000000000000000000000000000000046
:100AB0000000000000000000000000000000000036
:100AC00000000000464646464646464646464646DE
:100AD00046464646464646464600000000000000A0
:100AE0000000000000000000000000000000000006
:100AF00000000000000000000000000000000000F6
:100B000000000000000000000000000000000000E5
:100B100000000000004646464646464646464646D3
:100B20004646464646464646000000000000000095
:100B300000000000000000000000000000000000B5
:100B400000000000000000000000000000000000A5
:100B50000000000000000000000000000000000095
:100B600000000000000046464646464646464646C9
:100B7000464646464646460000000000000000008B
:100B80000000000000000000000000000000000065
:100B90000000000000000000000000000000000055
:100BA0000000000000000000000000000000000045
:100BB00000000000000000464646464646464646BF
:100BC0004646464646460000000000000000000081
:100BD0000000000000000000000000000000000015
:100BE0000000000000000000000000000000000005
:100BF00000000000000000000000000000000000F5
:100C000000000000000000004646464646464646B4
:100C10004646464646000000000000000000000076
:100C200000000000000000000000000000000000C4
:100C300000000000000000000000000000000000B4
:100C400000000000000000000000000000000000A4
:100C500000000000000000000046464646464646AA
:100C6000464646460000000000000000000000006C
:100C70000000000000000000000000000000000074
:100C80000000000000000000000000000000000064
:100C90000000000000000000000000000000000054
:100CA00000000000000000000000464646464646A0
:100CB0004646460000000000000000000000000062
:100CC0000000000000000000000000000000000024
:100CD0000000000000000000000000000000000014
:100CE0000000000000000000000000000000000004
:100CF0000000000000000000000000464646464696
:100D00004646000000000000000000000000000057
:100D100000000000000000000000000000000000D3
:100D200000000000000000000000000000000000C3
:100D300000000000000000000000000000000000B3
:100D4000000000000000000000000000464646468B
:100D5000460000000000000000000000000000004D
:100D60000000000000000000000000000000000083
:100D70000000000000000000000000000000000073
:100D80000000000000000000000000000000000063
:100D90000000000000000000000000000046464681
:100DA0000000000000000000000000000000000043
:100DB0000000000000000000000000000000000033
:100DC0000000000000000000000000000000000023
:100DD0000000000000000000000000000000000013
:100DE00000000000000000000000000000004600BD
:100DF00000000000000000000000000000000000F3
:100E000000000000000000000000000000000000E2
:100E100000000000000000000000000000000000D2
:100E200000000000000000000000000000000000C2
:100E300000000000000000000000000000000000B2
:100E400000000000000000000000000000000000A2
:100E50000000000000000000000000000000000092
:100E60000000000000000000000000000000000082
:100E70000000000000000000000000000000000072
:100E80000000000000000000000000000000000062
:100E90000000000000000000000000000000000052
:100EA0000000000000000000000000000000000042
:100EB0000000000000000000000000000000000032
:100EC0000000000000000000000000000000000022
:100ED0000000000000000000000000000000000012
:100EE0000000000000000000000000000000000002
:100EF00000000000000000000000000000000000F2
:100F000000000000000000000000000000000000E1
:100F100000000000000000000000000000000000D1
:100F200000000000000000000000000000000000C1
:100F300000000000000000000000000000000000B1
:100F400000000000000000000000000000000000A1
:100F50000000000000000000000000000000000091
:100F60000000000000000000000000000000000081
:100F70000000000000000000000000000000000071
:100F80000000000000000000000000000000000061
:100F90000000000000000000000000000000000051
:080FA000000000000000000049
:080FA800330EE66EE66A780ED6
:100FB000E66E0AEC0CF0E552E552E552F40EE66EF0
:100FC000AEEC0CF0E552B89AB8981200D9CFE6FF13
:100FD000E1CFD9FF080EE1265ADBD890015004E694
:100FE000640E005C000E01583CE3640E63DB5ADBC8
:100FF0003EC0DEFF3FC0DDFFDECF00F0DDCF01F001
:10100000300E0026000E012200C0DEFF01C0DDFF11
:101010003EDB640ECDDA0A0E006E016A060EDBCFEF
:101020003EF0070EB3D9640EC3DA060EDBCF00F034
:10103000070EDBCF01F00A0E1FDB040E3AC0DBFF08
:10104000050E3BC0DBFF300EE76E040EDBCF00F079
:10105000050EF7DA0BDBDFCFE6FF81EC0CF0E55293
:101060000CD00A0E27DB92D90A0EA2DA300EE76EF8
:10107000060EDBCF00F0070EE4DAF8DA020EDBCF63
:10108000E6FF81EC0CF0E552F1DA040EDBCFE6FF6F
:1010900081EC0CF0E552200EE66E81EC0CF0E5528E
:1010A000080EE15C02E2E16AE552E16EE552E7CF4B
:1010B000D9FF1200D9CFE6FFE1CFD9FF2C0EE126F0
:1010C000010EDE6EDD6A020EDB6A030EDB6A040EC1
:1010D000DB68050EDB68010EF36E060EF3CFDBFF57
:1010E000070EDB6A080EDB6A090EDB6A0A0EDB6894
:1010F0000B0EDB68010EF36E0C0EF3CFDBFF0D0E53
:10110000DB6A0E0EDB6A0F0EDB6A100EDB68110E57
:10111000DB68120EDB68130EDB68140EDB68150E3D
:10112000DB68160EDB68170EDB68180EDB6A190E1B
:10113000DB6A1A0EDB6A1B0EDB6A1C0EDB6A1D0EF5
:10114000DB6A010EF36E1E0EF3CFDBFF1F0EDB6AB0
:10115000010EF36E200EF3CFDBFF210EDB6A010ED2
:10116000F36E220EF3CFDBFF230EDB6A240EDB6A65
:10117000250EDB6A260EDB6A270EDB6A280EDB6A89
:10118000290EDB6A2A0EDB6A2B0EDB6A010EF36E78
:101190002A0EF3CFDBFF310EF36E2A0EDBCFF4FF06
:1011A000F350F45C01E3DAD0010EF36E2B0EF3CFB3
:1011B000DBFF4F0EF36E2B0EDBCFF4FFF350F45C2E
:1011C00001E3C5D019DA3E6E13C03FF0DECF43F025
:1011D000DDCF44F0F5D9020EDBCF3EF0030EECD8A4
:1011E000040EDBCF3EF0050E0BD9060EDBCF3EF032
:1011F000070E2AD9080EDBCF3EF0090E49D90A0E98
:10120000DBCF3EF00B0E68D90C0EDBCF3EF00D0E9F
:1012100087D90E0EDBCF3EF00F0EA6D9100EDBCF16
:101220003EF0110EFFD9240E00C0DBFF250E01C0D9
:10123000DBFFE2D9120EDBCF3EF0130EDBCF3FF027
:1012400012C043F013C044F0BBD9140EDBCF3EF004
:10125000150EB2D8160EDBCF3EF0170ED1D8180EF1
:10126000DBCF3EF0190EF0D81A0EDBCF3EF01B0E8E
:101270000FD91C0EDBCF3EF01D0E2ED91E0EDBCF7C
:101280003EF01F0E4DD9200EDBCF3EF0210E6CD963
:10129000220EDBCF3EF0230EC5D9260E00C0DBFFA9
:1012A000270E01C0DBFF240EDBCF00F0250EDBCFC5
:1012B00001F00001800E011410E03E683F68240E2A
:1012C000DBCF43F0250EDBCF44F08EEC0BF0240E89
:1012D0003CC0DBFF250E3DC0DBFF260EDBCF00F060
:1012E000270EDBCF01F00001800E011410E03E68F4
:1012F0003F68260EDBCF43F0270EDBCF44F08EECA9
:101300000BF0260E3CC0DBFF270E3DC0DBFF260E98
:10131000DBCF02F0270EDBCF03F0240EDB500224DC
:10132000006E250EDB500320016E280E00C0DBFF8F
:10133000290E01C0DBFF280EDBCFE6FF290EDBCF35
:10134000E6FF44DEE552E5522B0EDB2A32D7DA0EF9
:10135000006E190E7ED92A0EDB2A1DD7D60E006E1E
:10136000190E77D92C0EE15C02E2E16AE552E16EDA
:10137000E552E7CFD9FF1200100EE66EDDEC0CF05F
:10138000E552800E946E10DE95DEFFD78BD9020EEB
:101390003EC0DBFF030E3FC0DBFF300EE76E020EE8
:1013A000DBCF00F0030E8DD9020E00C0DBFF030E71
:1013B00001C0DBFF47EF0BF0DBCF3FF016C043F07F
:1013C00017C044F08EEC0BF010503C240E6E115000
:1013D0003D200F6E2A0EDB04500DF3CF1CF0F4CF2E
:1013E0001DF0080E1C26000E1D222B0EDB280F01FF
:1013F0001C24F66E000E1D2051D91A6E1B6A1200B5
:10140000DBCF3FF01AC043F01BC044F08EEC0BF072
:101410000E503C240C6E0F503D200D6E2A0EDB50FA
:10142000500DF3CF20F0F4CF21F0080E2026000E4F
:1014300021222B0EDB040F012024F66E000E21204A
:101440002DD91E6E1F6A1200DBCF3FF01EC043F085
:101450001FC044F08EEC0BF00C503C240A6E0D5073
:101460003D200B6E2A0EDB50500DF3CF24F0F4CF4D
:1014700025F0080E2426000E25222B0EDB500F012E
:101480002424F66E000E252009D9226E236A12004C
:10149000DBCF3FF022C043F023C044F08EEC0BF0D2
:1014A0000A503C24086E0B503D20096E2A0EDB507A
:1014B000500DF3CF28F0F4CF29F0080E2826000EA7
:1014C00029222B0EDB280F012824F66E000E29207E
:1014D000E5D8266E276A1200DBCF3FF026C043F026
:1014E00027C044F08EEC0BF008503C24066E0950E7
:1014F0003D20076E2A0EDB28500DF3CF2CF0F4CFE1
:101500002DF0080E2C26000E2D222B0EDB040F01D1
:101510002C24F66E000E2D20C1D82A6E2B6A1200E4
:10152000DBCF3FF02AC043F02BC044F08EEC0BF031
:1015300006503C24046E07503D20056E2A0EDB2821
:10154000500DF3CF30F0F4CF31F0080E3026000EFE
:1015500031222B0EDB500F013024F66E000E3120AD
:101560009DD82E6E2F6A1200DBCF3FF02EC043F0C5
:101570002FC044F08EEC0BF004503C24026E05505A
:101580003D20036E2A0EDB28500DF3CF34F0F4CF4C
:1015900035F0080E3426000E35222B0EDB280F0105
:1015A0003424F66E000E352079D8326E336A12007C
:1015B00063D8060E3AC0DBFF070E3BC0DBFF12000C
:1015C0008EEC0BF03CC010F03DC011F02A0EDB0495
:1015D000500DF3CF18F0F4CF19F0080E1826000EB6
:1015E00019222B0EDB500F011824F66E000E192065
:1015F00055D8166E176A12002A0EDB04500DF3CF71
:1016000014F0F4CF15F0080E1426000E15222B0E40
:10161000DB040F011424F66E000E15203FD8126E65
:10162000136A1200DBCF3FF032C043F033C044F006
:101630008EEC0BF002503C24006E03503D20016EF6
:1016400012003FD8040E00C0DBFF050E01C0DBFF17
:101650001200016E026A00C0E6FFE66E02C0E6FFFD
:101660004FEC0CF0E552E552E5521200640EE66EC6
:10167000DDEC0CF0E5521200436E446A00C03EF00F
:1016800001C03FF068EC0BF03BC001F01200FD0E12
:10169000DBCF00F0FE0EDBCF01F01200F76E08008A
:1016A000F5501200DBCF3FF000C043F001C044F022
:1016B00068EF0BF0006E016AFD0EDBCF3EF0FE0E10
:1016C0001200DBCF01F0E7500026000E01221200CD
:1016D000366A44AE71EF0BF0436C441EE86A442254
:1016E000361E3FAE79EF0BF03E6C3F1EE86A3F229C
:1016F000361E98EC0CF03FBE89EF0BF036AE000CB6
:101700003E6C3F1EE86A3F223A6C3B1EE86A3B2271
:10171000000C36BE80EF0BF03788FF0C3FC049F05D
:101720003EC048F03E504302F4CF3DF0F3CF3CF0D2
:101730003F504402F4CF3FF0F3CF3EF04302F3506A
:101740003D26F4503E22E86A3F2248504402F350BE
:101750003D26F4503E22E86A3F2244AEB4EF0BF03F
:1017600048503E5E49503F5A49AE000C43503E5EE1
:0617700044503F5A000C3A
:0A177600060EF66E000EF76E000E70
:10178000F86E00010900F550656F0900F550666FAD
:1017900003E1656701D03DD00900F550606F090095
:1017A000F550616F0900F550626F09000900F550AE
:1017B000E96E0900F550EA6E090009000900F550CC
:1017C000636F0900F550646F09000900F6CF67F0F8
:1017D000F7CF68F0F8CF69F060C0F6FF61C0F7FF9F
:1017E00062C0F8FF0001635302E1645307E009009F
:1017F000F550EE6E6307F8E26407F9D767C0F6FFAD
:1018000068C0F7FF69C0F8FF00016507000E665B5E
:04181000BFD712002C
:0C181400D9CFE6FFDACFE6FFE1CFD9FF25
:10182000E2CFDAFFAC6AAB6AFD0EDBB0AC88DBA2BC
:1018300002D0AC8CAB8CDBB4AC8EDBA602D0AB8818
:1018400001D0AB8ADBB8AC849E98DBBAAB86DBAC4C
:1018500002D09D8A01D09D9A9E9ADBAE02D09D88CF
:1018600001D09D98FB0EDB50AF6EFB0EFC0EDBCF64
:1018700001F001C000F0016A0050B06EAC8AAB8E7E
:10188000949C948EAC50100B04E0AC50800B01E1A2
:0E189000948CE552E5CFDAFFE7CFD9FF1200C6
:02189E00D9CFA0
:1018A000E6FFDACFE6FFE1CFD9FFE2CFDAFFACA265
:1018B000FED7FB0EDBCFF6FFFC0EDBCFF7FFFD0EF6
:1018C000DBCFF8FF0800F550E66E81EC0CF0E55236
:1018D000D950FB0FE96EFF0EDA20EA6EEFCFF6FF6C
:1018E000EE2AEFCFF7FF000EEE22EFCFF8FFEE2249
:1018F0000800F550DCE1E552E5CFDAFFE7CFD9FF8C
:021900001200D3
:0E190200D9CFE6FFDACFE6FFE1CFD9FFE2CF83
:10191000DAFFACAC04D0AC9000016AB3AC80FD0E31
:10192000DB50AD6EE552E5CFDAFFE7CFD9FF12000D
:101930003B6A3A6A100EE76ED8903E363F363A362A
:101940003B3643503A5C44503B5805E343503A5EC3
:0C19500044503B5A3E2AE72EF0D712000C
:04195C00D9CFE6FFFA
:10196000DACFE6FFE1CFD9FFE2CFDAFFFD0EDB50A1
:0E197000B86EE552E5CFDAFFE7CFD9FF1200DF
:02197E00000E59
:10198000F36E00EE00F0080E01D81200EA6002D0FB
:0E199000EE6AFCD7F350E9601200EE6AFCD755
:02199E0013EE46
:1019A00000F023EE00F0F86A379CBBEC0BF0EFEC94
:0A19B0000CF0BCEC09F0FBD71200AC
:0619BA00FF0EE3504A6E2F
:1019C0001B0E00D001D0200EE76EE72EFED74A2E68
:0619D000FAD700D012005E
:0719D6000D0A0A000D0A00D2
:0219DE001200F5
:020000040030CA
:010001000CF2
:010002001FDE
:010003001EDE
:0100050001F9
:010006008178
:00000001FF
