:020000040000FA
:0600000021EF0CF01200DC
:020006000000F8
:080008000000000000000000F0
:1000100000000000000000000000000000000000E0
:1000200000000000000000000000000000000000D0
:1000300000000000000000000000000000000000C0
:1002700064646464646464646400000000000000FA
:10028000000000000000000000000000000000006E
:10029000000000000000000000000000000000005E
:1002A000000000000000000000000000000000004E
:1002B00000006464646464646464646464646464C6
:1002C00064646464646464646464640000000000E2
:1002D000000000000000000000000000000000001E
:1002E000000000000000000000000000000000000E
:1002F00000000000000000000000000000000000FE
:10030000000000006464646464646464646464643D
:1003100064646464646464646464646464000000C9
:1003200000000000000000000000000000000000CD
:1003300000000000000000000000000000000000BD
:1003400000000000000000000000000000000000AD
:1003500000000000000064646464646464646464B5
:1003600064646464646464646464646464646400B1
:10037000000000000000000000000000000000007D
:10038000000000000000000000000000000000006D
:10039000000000000000000000000000000000005D
:1003A000000000000000000064646464646464642D
:1003B00064646464646464646464646464646464FD
:1003C00064000000000000000000000000000000C9
:1003D000000000000000000000000000000000001D
:1003E000000000000000000000000000000000000D
:1003F00000000000000000000000646464646464A5
:1004000064646464646464646464646464646464AC
:1004100064646400000000000000000000000000B0
:1004200000000000000000000000000000000000CC
:1004300000000000000000000000000000000000BC
:10044000000000000000000000000000646464641C
:10045000646464646464646464646464646464645C
:100460006464646464000000000000000000000098
:10047000000000000000000000000000000000007C
:10048000000000000000000000000000000000006C
:100490000000000000000000000000000000646494
:1004A000646464646464646464646464646464640C
:1004B0006464646464646400000000000000000080
:1004C000000000000000000000000000000000002C
:1004D000000000000000000000000000000000001C
:1004E000000000000000000000000000000000000C
:1004F00064646464646464646464646464646464BC
:100500006464646464646464640000000000000067
:1005100000000000000000000000000000000000DB
:1005200000000000000000000000000000000000CB
:1005300000000000000000000000000000000000BB
:100540000000646464646464646464646464646433
:10055000646464646464646464646400000000004F
:10056000000000000000000000000000000000008B
:10057000000000000000000000000000000000007B
:10058000000000000000000000000000000000006B
:1005900000000000646464646464646464646464AB
:1005A0006464646464646464646464646400000037
:1005B000000000000000000000000000000000003B
:1005C000000000000000000000000000000000002B
:1005D000000000000000000000000000000000001B
:1005E0000000000000006464646464646464646423
:1005F000646464646464646464646464646464001F
:1006000000000000000000000000000000000000EA
:1006100000000000000000000000000000000000DA
:1006200000000000000000000000000000000000CA
:10063000000000000000000064646464646464649A
:10064000646464646464646464646464646464646A
:100650006400000000000000000000000000000036
:10066000000000000000000000000000000000008A
:10067000000000000000000000000000000000007A
:100680000000000000000000000064646464646412
:10069000646464646464646464646464646464641A
:1006A000646464000000000000000000000000001E
:1006B000000000000000000000000000000000003A
:1006C000000000000000000000000000000000002A
:1006D000000000000000000000000000646464648A
:1006E00064646464646464646464646464646464CA
:1006F0006464646464000000000000000000000006
:1007000000000000000000000000000000000000E9
:1007100000000000000000000000000000000000D9
:100720000000000000000000000000000000646401
:100730006464646464646464646464646464646479
:1007400064646464646464000000000000000000ED
:100750000000000000000000000000000000000099
:100760000000000000000000000000000000000089
:100770000000000000000000000000000000000079
:100780006464646464646464646464646464646429
:1007900064646464646464646400000000000000D5
:1007A0000000000000000000000000000000000049
:1007B0000000000000000000000000000000000039
:1007C0000000000000000000000000000000000029
:1007D00000006464646464646464646464646464A1
:1007E00064646464646464646464640000000000BD
:1007F00000000000000000000000000000000000F9
:1008000000000000000000000000000000000000E8
:1008100000000000000000000000000000000000D8
:100820000000000064646464646464646464646418
:1008300064646464646464646464646464000000A4
:1008400000000000000000000000000000000000A8
:100850000000000000000000000000000000000098
:100860000000000000000000000000000000000088
:100870006464646464646464646464646464646438
:100880006464646464646464646464646464646428
:100890006464646464000000000000000000000064
:1008A0000000000000000000000000000000000048
:1008B0000000000000000000000000000000000038
:1008C0000000006464646464646464646464646414
:1008D00064646464646464646464646464646464D8
:1008E00064646464646400000000000000000000B0
:1008F00000000000000000000000000000000000F8
:1009000000000000000000000000000000000000E7
:1009100000000000000064646464646464646464EF
:100920006464646464646464646464646464646487
:1009300064646464646464000000000000000000FB
:1009400000000000000000000000000000000000A7
:100950000000000000000000000000000000000097
:1009600000000000000000000064646464646464CB
:100970006464646464646464646464646464646437
:100980006464646464646464000000000000000047
:100990000000000000000000000000000000000057
:1009A0000000000000000000000000000000000047
:1009B00000000000000000000000000064646464A7
:1009C00064646464646464646464646464646464E7
:1009D0006464646464646464640000000000000093
:1009E0000000000000000000000000000000000007
:1009F00000000000000000000000000000000000F7
:100A00000000000000000000000000000000006482
:100A10006464646464646464646464646464646496
:100A200064646464646464646464000000000000DE
:100A300000000000000000000000000000000000B6
:100A400000000000000000000000000000000000A6
:100A50000000000000000000000000000000000096
:100A6000000064646464646464646464646464640E
:100A7000646464646464646464646400000000002A
:100A80000000000000000000000000000000000066
:100A90000000000000000000000000000000000056
:100AA0000000000000000000000000000000000046
:100AB00000000000006464646464646464646464EA
:100AC0006464646464646464646464640000000076
:100AD0000000000000000000000000000000000016
:100AE0000000000000000000000000000000000006
:100AF00000000000000000000000000000000000F6
:100B000000000000000000006464646464646464C5
:100B100064646464646464646464646464000000C1
:100B200000000000000000000000000000000000C5
:100B300000000000000000000000000000000000B5
:100B400000000000000000000000000000000000A5
:100B500000000000000000000000006464646464A1
:100B6000646464646464646464646464646400000D
:100B70000000000000000000000000000000000075
:100B80000000000000000000000000000000000065
:100B90000000000000000000000000000000000055
:100BA000000000000000000000000000000064647D
:100BB0006464646464646464646464646464640059
:100BC0000000000000000000000000000000000025
:100BD0000000000000000000000000000000000015
:100BE0000000000000000000000000000000000005
:100BF00000000000000000000000000000000000F5
:100C00000064646464646464646464646464646408
:100C100000000000000000000000000000000000D4
:100C200000000000000000000000000000000000C4
:100C300000000000000000000000000000000000B4
:100C400000000000000000000000000000000000A4
:100C500000000000646464646464646464646464E4
:100C60006400000000000000000000000000000020
:100C70000000000000000000000000000000000074
:100C80000000000000000000000000000000000064
:100C90000000000000000000000000000000000054
:100CA00000000000000000646464646464646464C0
:100CB000646400000000000000000000000000006C
:100CC0000000000000000000000000000000000024
:100CD0000000000000000000000000000000000014
:100CE0000000000000000000000000000000000004
:100CF000000000000000000000006464646464649C
:100D000064646400000000000000000000000000B7
:100D100000000000000000000000000000000000D3
:100D200000000000000000000000000000000000C3
:100D300000000000000000000000000000000000B3
:100D40000000000000000000000000000064646477
:100D50006464646400000000000000000000000003
:100D60000000000000000000000000000000000083
:100D70000000000000000000000000000000000073
:100D80000000000000000000000000000000000063
:100D90000000000000000000000000000000000053
:100DA000646464646400000000000000000000004F
:100DB0000000000000000000000000000000000033
:100DC0000000000000000000000000000000000023
:100DD0000000000000000000000000000000000013
:100DE0000000000000000000000000000000000003
:100DF00000000064646400000000000000000000C7
:100E000000000000000000000000000000000000E2
:100E100000000000000000000000000000000000D2
:100E200000000000000000000000000000000000C2
:100E300000000000000000000000000000000000B2
:100E4000000000000000640000000000000000003E
:100E50000000000000000000000000000000000092
:100E60000000000000000000000000000000000082
:100E70000000000000000000000000000000000072
:100E80000000000000000000000000000000000062
:1010B000330EE66EE66A780EE66E5CEC0BF0E552F7
:1010C000E552E552F40EE66E00EC0CF0E552B89AEB
:1010D000B8981200D9CFE6FFE1CFD9FFE652B1D9D7
:1010E0002850DF6E1CDAD890015004E6640E005CD4
:1010F000000E015809E3F3D9A4D92CC000F02DC08B
:1011000001F0300E2C24F1D9EAD90A0E006E326EAD
:10111000DFCF2DF0A0EC0AF02D50300FE6D9DFD94B
:10112000DFCF00F000C02DF00A0E326EA0EC0AF006
:101130002950300FDAD9200ED8D9E552E552E7CF41
:10114000D9FF1200D9CFE6FFE1CFD9FF150EE12676
:10115000010EDE6EDD6A020EDB6A030EDB6A040E30
:10116000DB68050EDB68060EDB6A070EDB6A080E1D
:10117000DB6A090EDB6A010EF36E0A0EF3CFDBFFAA
:10118000330EF36E0A0EDBCFF4FFF350F45C01E391
:10119000D1D0010EF36E0B0EF3CFDBFF510EF36EC9
:1011A0000B0EDBCFF4FFF350F45C01E3BFD00A0E6B
:1011B000DB04D0D8DB040F013DD90C0E83D9DB044E
:1011C000A6D90D0E7FD9DB04A6D90E0E7BD9DB5034
:1011D000C1D8DB042FD90F0E75D9DB5098D9100E6A
:1011E00071D9DB5098D9110E6DD9DB28B3D8DB0447
:1011F00021D9120E67D9DB288AD9130E63D9DB28CF
:101200008AD9140EF5CFDBFF0C0EDB50126E136A79
:101210002C6E13C02DF076D94AD988D9A6D82C6E59
:1012200019C02DF06FD9E8D886D9C3D863D920C0AA
:1012300031F021C032F02ED961D922C031F023C063
:1012400032F044D9060E00C0DBFF070E01C0DBFF01
:101250000C0EDB50126E136A51D912C031F013C05C
:1012600032F025D968D981D845D918C031F019C0D4
:1012700032F0C2D85BD99DD82C6E21C02DF042D956
:1012800009D92C6E23C02DF03DD920D9080E00C0FD
:10129000DBFF090E01C0DBFF060EDBCF00F0070EFF
:1012A000DBCF01F00001800E011410E02C682D68E6
:1012B000060EDBCF31F0070EDBCF32F0E0EC0AF0A8
:1012C000060E2AC0DBFF070E2BC0DBFF080EDBCFAC
:1012D00000F0090EDBCF01F00001800E011410E0D8
:1012E0002C682D68080EDBCF31F0090EDBCF32F011
:1012F000E0EC0AF0080E2AC0DBFF090E2BC0DBFF72
:10130000BAD8E83409E20050FF08000E015404E2A4
:10131000FF0EE66EE66A04D0AED800C0E6FFE66EC9
:10132000D9DEE552E5520B0EDB2A38D794D80A0EE7
:10133000DB2A26D790D8150EE15C02E2E16AE5527D
:10134000E16EE552E7CFD9FF1200800E946EB0DE59
:10135000F9DEFFD7520DF3CF00F0F4CF01F0080E05
:101360000026000E01220B0E1200DBCF2DF014C060
:1013700031F015C032F0E0EC0AF010502A240E6E65
:1013800011502B200F6E0E0EDB50166E176AB6D85A
:1013900016C031F017C032F0E0EC0AF00E502A24EB
:1013A0000C6E0F502B200D6E0F0EDB50186E196A4D
:1013B0001200DBCF2DF01CC031F01DC032F0E0EC8C
:1013C0000AF008502A24066E09502B20076E120ED0
:1013D000DB501E6E1F6A2C6E1FC02DF093D8E0EC00
:1013E0000AF006502A24046E07502B20056E130EB7
:1013F000DB50206E216A1200E0EC0AF00C502A2427
:101400000A6E0D502B200B6E100EDB501A6E1B6AED
:1014100071D81AC031F01BC032F0E0EC0AF00A506B
:101420002A24086E0B502B20096E110EDB501C6E07
:101430001D6A12000024F66E000E0120F76E0800EF
:1014400012006DD8640E316E326A00C02CF001C0FB
:101450002DF0BAEF0AF0960E006E180E016E026AB9
:1014600000C0E6FFE66E02C0E6FFA1EC0BF0E5521D
:10147000E552E5521200080EDBCF02F0090EDBCF79
:1014800003F0060EDB500224006E070EDB50032033
:10149000016E1200E0EC0AF004502A24026E05509E
:1014A0002B20036E140EDB50226E236A1200E0EC38
:1014B0000AF02AC010F02BC011F00D0EDB50146E94
:1014C000156A1200F5CFDBFF0A0E1200E0EC0AF0FD
:1014D00002502A24006E03502B20016E1200640E6D
:1014E000E66E2FEC0CF0E5521200E66ED3EC0BF03A
:1014F000E55212001BD8DBCF2DF012001CD8DBCF39
:101500002DF01200DECF31F0DDCF32F0120022DFFD
:10151000DB501AEF0AF01EDFDB281AEF0AF0FD0E8F
:10152000DBCF00F0FE0EDBCF01F01200020EDBCFAE
:101530002CF0030E1200040EDBCF2CF0050E12006F
:10154000246A32AEA6EF0AF0326C241E2DAEABEF49
:101550000AF02D6C241E3DEC0CF02DBEB5EF0AF008
:1015600024AE000C2D6C296C000C24BEB2EF0AF0E6
:101570002588FF0C246A32AEC3EF0AF0316C321EAC
:10158000E86A3222241E2DAECBEF0AF02C6C2D1E01
:10159000E86A2D22241EEAEC0BF02DBEDBEF0AF0E8
:1015A00024AE000C2C6C2D1EE86A2D22286C291EFE
:1015B000E86A2922000C24BED2EF0AF02588FF0C2D
:1015C0002DC037F02CC036F02C503102F4CF2BF068
:1015D000F3CF2AF02D503202F4CF2DF0F3CF2CF0C0
:1015E0003102F3502B26F4502C22E86A2D2236507B
:1015F0003202F3502B26F4502C22E86A2D2232AE10
:1016000006EF0BF036502C5E37502D5A37AE000CDB
:0A16100031502C5E32502D5A000CB0
:06161A00060EF66E000E44
:10162000F76E000EF86E00010900F550656F0900B5
:10163000F550666F03E1656701D03DD00900F550B4
:10164000606F0900F550616F0900F550626F090085
:101650000900F550E96E0900F550EA6E090009002D
:101660000900F550636F0900F550646F0900090027
:10167000F6CF67F0F7CF68F0F8CF69F060C0F6FFFB
:1016800061C0F7FF62C0F8FF0001635302E16453D9
:1016900007E00900F550EE6E6307F8E26407F9D73A
:1016A00067C0F6FF68C0F7FF69C0F8FF0001650773
:0816B000000E665BBFD71200BB
:0816B800D9CFE6FFDACFE6FF0F
:1016C000E1CFD9FFE2CFDAFFAC6AAB6AFD0EDBB047
:1016D000AC88DBA202D0AC8CAB8CDBB4AC8EDBA6CE
:1016E00002D0AB8801D0AB8ADBB8AC849E98DBBA61
:1016F000AB86DBAC02D09D8A01D09D9A9E9ADBAE70
:1017000002D09D8801D09D98FB0EDB50AF6EFB0E82
:10171000FC0EDBCF01F001C000F0016A0050B06E9A
:10172000AC8AAB8E949C948EAC50100B04E0AC5001
:10173000800B01E1948CE552E5CFDAFFE7CFD9FFCA
:02174000120095
:0E174200D9CFE6FFDACFE6FFE1CFD9FFE2CF45
:10175000DAFFACA2FED7FB0EDBCFF6FFFC0EDBCF31
:10176000F7FFFD0EDBCFF8FF0800F550E66ED3EC77
:101770000BF0E552D950FB0FE96EFF0EDA20EA6E4E
:10178000EFCFF6FFEE2AEFCFF7FF000EEE22EFCFFE
:10179000F8FFEE220800F550DCE1E552E5CFDAFF74
:0617A000E7CFD9FF1200A3
:0A17A600D9CFE6FFDACFE6FFE1CF6E
:1017B000D9FFE2CFDAFFACAC04D0AC9000016AB341
:1017C000AC80FD0EDB50AD6EE552E5CFDAFFE7CF22
:0417D000D9FF12002B
:0C17D400296A286A100EE76ED8902C36A7
:1017E0002D36283629363150285C3250295805E3E9
:1017F0003150285E3250295A2C2AE72EF0D7120099
:10180000D9CFE6FFDACFE6FFE1CFD9FFE2CFDAFFAB
:10181000FD0EDB50B86EE552E5CFDAFFE7CFD9FF1A
:021820001200B4
:0E182200000EF36E00EE00F0080E01D812006A
:10183000EA6002D0EE6AFCD7F350E9601200EE6A6B
:02184000FCD7D3
:0E18420013EE00F023EE00F0F86A259C0DEC8A
:0E1850000BF04DEC0CF0A5EC09F0FBD71200EC
:02185E00FF0E7B
:10186000E350386E1B0E00D001D0200EE76EE72E3D
:0A187000FED7382EFAD700D0120080
:06187A00296A080EE76E6A
:10188000D8902D3629363250295C02E3296E2D2A54
:06189000E72EF7D712005D
:031896000D0A0038
:02189A0012003A
:020000040030CA
:010001000CF2
:010002001FDE
:010003001EDE
:0100050001F9
:010006008178
:00000001FF
