:020000040000FA
:06000000FAEF14F01200FB
:020006000000F8
:080008000000000000000000F0
:1000100000000000000000000000000000000000E0
:1000200000000000000000000000000000000000D0
:1000300000000000000000000000000000000000C0
:100490000000000000000000000000006400640094
:1004A000640064006400640064006400640064002C
:1004B000640064006400640064006400640064001C
:1004C0006400640064006400640064006400000070
:1004D000000000000000000000000000000000001C
:1004E000000000000000000000000000000000000C
:1004F00000000000000000000000000000000000FC
:1005000000000000000000000000000000000000EB
:1005100000000000000000000000000000000000DB
:1005200000000000000000000000000000000000CB
:1005300000000000000000000000000064006400F3
:10054000640064006400640064006400640064008B
:10055000640064006400640064006400640064007B
:1005600064006400640064006400640064000000CF
:10057000000000000000000000000000000000007B
:10058000000000000000000000000000000000006B
:10059000000000000000000000000000000000005B
:1005A000000000000000000000000000000000004B
:1005B000000000000000000000000000000000003B
:1005C000000000000000000000000000000000002B
:1005D0000000000000000000000000006400640053
:1005E00064006400640064006400640064006400EB
:1005F00064006400640064006400640064006400DB
:10060000640064006400640064006400640000002E
:1006100000000000000000000000000000000000DA
:1006200000000000000000000000000000000000CA
:1006300000000000000000000000000000000000BA
:1006400000000000000000000000000000000000AA
:10065000000000000000000000000000000000009A
:10066000000000000000000000000000000000008A
:1006700000000000000000000000000064006400B2
:10068000640064006400640064006400640064004A
:10069000640064006400640064006400640064003A
:1006A000640064006400640064006400640000008E
:1006B000000000000000000000000000000000003A
:1006C000000000000000000000000000000000002A
:1006D000000000000000000000000000000000001A
:1006E000000000000000000000000000000000000A
:1006F00000000000000000000000000000000000FA
:1007000000000000000000000000000000000000E9
:100710000000000000000000000000006400640011
:1007200064006400640064006400640064006400A9
:100730006400640064006400640064006400640099
:1007400064006400640064006400640064000000ED
:100750000000000000000000000000000000000099
:100760000000000000000000000000000000000089
:100770000000000000000000000000000000000079
:100780000000000000000000000000000000000069
:100790000000000000000000000000000000000059
:1007A0000000000000000000000000000000000049
:1007B0000000000000000000000000006400640071
:1007C0006400640064006400640064006400640009
:1007D00064006400640064006400640064006400F9
:1007E000640064006400640064006400640000004D
:1007F00000000000000000000000000000000000F9
:1008000000000000000000000000000000000000E8
:1008100000000000000000000000000000000000D8
:1008200000000000000000000000000000000000C8
:1008300000000000000000000000000000000000B8
:1008400000000000000000000000000000000000A8
:1008500000000000000000000000000064006400D0
:100860006400640064006400640064006400640068
:100870006400640064006400640064006400640058
:1008800064006400640064006400640064000000AC
:100890000000000000000000000000000000000058
:1008A0000000000000000000000000000000000048
:1008B0000000000000000000000000000000000038
:1008C0000000000000000000000000000000000028
:1008D0000000000000000000000000000000000018
:1008E0000000000000000000000000000000000008
:1008F0000000000000000000000000006400640030
:1009000064006400640064006400640064006400C7
:1009100064006400640064006400640064006400B7
:10092000640064006400640064006400640000000B
:1009300000000000000000000000000000000000B7
:1009400000000000000000000000000000000000A7
:100950000000000000000000000000000000000097
:100960000000000000000000000000000000000087
:100970000000000000000000000000000000000077
:100980000000000000000000000000000000000067
:10099000000000000000000000000000640064008F
:1009A0006400640064006400640064006400640027
:1009B0006400640064006400640064006400640017
:1009C000640064006400640064006400640000006B
:1009D0000000000000000000000000000000000017
:1009E0000000000000000000000000000000000007
:1009F00000000000000000000000000000000000F7
:100A000000000000000000000000000000000000E6
:100A100000000000000000000000000000000000D6
:100A200000000000000000000000000000000000C6
:100A300000000000000000000000000064006400EE
:100A40006400640064006400640064006400640086
:100A50006400640064006400640064006400640076
:100A600064006400640064006400640064000000CA
:100A70000000000000000000000000000000000076
:100A80000000000000000000000000000000000066
:100A90000000000000000000000000000000000056
:100AA0000000000000000000000000000000000046
:100AB0000000000000000000000000000000000036
:100AC0000000000000000000000000000000000026
:100AD000000000000000000000000000640064004E
:100AE00064006400640064006400640064006400E6
:100AF00064006400640064006400640064006400D6
:100B00006400640064006400640064006400000029
:100B100000000000000000000000000000000000D5
:100B200000000000000000000000000000000000C5
:100B300000000000000000000000000000000000B5
:100B400000000000000000000000000000000000A5
:100B50000000000000000000000000000000000095
:100B60000000000000000000000000000000000085
:100B700000000000000000000000000064006400AD
:100B80006400640064006400640064006400640045
:100B90006400640064006400640064006400640035
:100BA0006400640064006400640064006400000089
:100BB0000000000000000000000000000000000035
:100BC0000000000000000000000000000000000025
:100BD0000000000000000000000000000000000015
:100BE0000000000000000000000000000000000005
:100BF00000000000000000000000000000000000F5
:100C000000000000000000000000000000000000E4
:100C1000000000000000000000000000640064000C
:100C200064006400640064006400640064006400A4
:100C30006400640064006400640064006400640094
:100C400064006400640064006400640064000000E8
:100C50000000000000000000000000000000000094
:100C60000000000000000000000000000000000084
:100C70000000000000000000000000000000000074
:100C80000000000000000000000000000000000064
:100C90000000000000000000000000000000000054
:100CA0000000000000000000000000000000000044
:100CB000000000000000000000000000640064006C
:100CC0006400640064006400640064006400640004
:100CD00064006400640064006400640064006400F4
:100CE0006400640064006400640064006400000048
:100CF00000000000000000000000000000000000F4
:100D000000000000000000000000000000000000E3
:100D100000000000000000000000000000000000D3
:100D200000000000000000000000000000000000C3
:100D300000000000000000000000000000000000B3
:100D400000000000000000000000000000000000A3
:100D500000000000000000000000000064006400CB
:100D60006400640064006400640064006400640063
:100D70006400640064006400640064006400640053
:100D800064006400640064006400640064000000A7
:100D90000000000000000000000000000000000053
:100DA0000000000000000000000000000000000043
:100DB0000000000000000000000000000000000033
:100DC0000000000000000000000000000000000023
:100DD0000000000000000000000000000000000013
:100DE0000000000000000000000000000000000003
:100DF000000000000000000000000000640064002B
:100E000064006400640064006400640064006400C2
:100E100064006400640064006400640064006400B2
:100E20006400640064006400640064006400000006
:100E300000000000000000000000000000000000B2
:100E400000000000000000000000000000000000A2
:100E50000000000000000000000000000000000092
:100E60000000000000000000000000000000000082
:100E70000000000000000000000000000000000072
:100E80000000000000000000000000000000000062
:100E9000000000000000000000000000640064008A
:100EA0006400640064006400640064006400640022
:100EB0006400640064006400640064006400640012
:100EC0006400640064006400640064006400000066
:100ED0000000000000000000000000000000000012
:100EE0000000000000000000000000000000000002
:100EF00000000000000000000000000000000000F2
:100F000000000000000000000000000000000000E1
:100F100000000000000000000000000000000000D1
:100F200000000000000000000000000000000000C1
:100F300000000000000000000000000064006400E9
:100F40006400640064006400640064006400640081
:100F50006400640064006400640064006400640071
:100F600064006400640064006400640064000000C5
:100F70000000000000000000000000000000000071
:100F80000000000000000000000000000000000061
:100F90000000000000000000000000000000000051
:100FA0000000000000000000000000000000000041
:100FB0000000000000000000000000000000000031
:100FC0000000000000000000000000000000000021
:100FD0000000000000000000000000006400640049
:100FE00064006400640064006400640064006400E1
:100FF00064006400640064006400640064006400D1
:101000006400640064006400640064006400000024
:1010100000000000000000000000000000000000D0
:1010200000000000000000000000000000000000C0
:1010300000000000000000000000000000000000B0
:1010400000000000000000000000000000000000A0
:101050000000000000000000000000000000000090
:101060000000000000000000000000000000000080
:1010700000000000000000000000000064006400A8
:101080006400640064006400640064006400640040
:101090006400640064006400640064006400640030
:1010A0006400640064006400640064006400000084
:1010B0000000000000000000000000000000000030
:1010C0000000000000000000000000000000000020
:1010D0000000000000000000000000000000000010
:1010E0000000000000000000000000000000000000
:1010F00000000000000000000000000000000000F0
:1011000000000000000000000000000000000000DF
:101110000000000000000000000000006400640007
:10112000640064006400640064006400640064009F
:10113000640064006400640064006400640064008F
:1011400064006400640064006400640064000000E3
:10115000000000000000000000000000000000008F
:10116000000000000000000000000000000000007F
:10117000000000000000000000000000000000006F
:10118000000000000000000000000000000000005F
:10119000000000000000000000000000000000004F
:1011A000000000000000000000000000000000003F
:1011B0000000000000000000000000006400640067
:1011C00064006400640064006400640064006400FF
:1011D00064006400640064006400640064006400EF
:1011E0006400640064006400640064006400000043
:1011F00000000000000000000000000000000000EF
:1012000000000000000000000000000000000000DE
:1012100000000000000000000000000000000000CE
:1012200000000000000000000000000000000000BE
:1012300000000000000000000000000000000000AE
:10124000000000000000000000000000000000009E
:1012500000000000000000000000000064006400C6
:10126000640064006400640064006400640064005E
:10127000640064006400640064006400640064004E
:1012800064006400640064006400640064000000A2
:10129000000000000000000000000000000000004E
:1012A000000000000000000000000000000000003E
:1012B000000000000000000000000000000000002E
:1012C000000000000000000000000000000000001E
:1012D000000000000000000000000000000000000E
:1012E00000000000000000000000000000000000FE
:1012F0000000000000000000000000006400640026
:1013000064006400640064006400640064006400BD
:1013100064006400640064006400640064006400AD
:101320006400640064006400640064006400000001
:1013300000000000000000000000000000000000AD
:10134000000000000000000000000000000000009D
:10135000000000000000000000000000000000008D
:10136000000000000000000000000000000000007D
:10137000000000000000000000000000000000006D
:10138000000000000000000000000000000000005D
:101390000000000000000000000000006400640085
:1013A000640064006400640064006400640064001D
:1013B000640064006400640064006400640064000D
:1013C0006400640064006400640064006400000061
:1013D000000000000000000000000000000000000D
:1013E00000000000000000000000000000000000FD
:1013F00000000000000000000000000000000000ED
:1014000000000000000000000000000000000000DC
:1014100000000000000000000000000000000000CC
:1014200000000000000000000000000000000000BC
:1014300000000000000000000000000064006400E4
:10144000640064006400640064006400640064007C
:10145000640064006400640064006400640064006C
:1014600064006400640064006400640064000000C0
:10147000000000000000000000000000000000006C
:10148000000000000000000000000000000000005C
:10149000000000000000000000000000000000004C
:1014A000000000000000000000000000000000003C
:1014B000000000000000000000000000000000002C
:1014C000000000000000000000000000000000001C
:1014D0000000000000000000000000006400640044
:1014E00064006400640064006400640064006400DC
:1014F00064006400640064006400640064006400CC
:10150000640064006400640064006400640000001F
:1015100000000000000000000000000000000000CB
:1015200000000000000000000000000000000000BB
:1015300000000000000000000000000000000000AB
:10154000000000000000000000000000000000009B
:10155000000000000000000000000000000000008B
:10156000000000000000000000000000000000007B
:1015700000000000000000000000000064006400A3
:10158000640064006400640064006400640064003B
:10159000640064006400640064006400640064002B
:1015A000640064006400640064006400640000007F
:1015B000000000000000000000000000000000002B
:1015C000000000000000000000000000000000001B
:1015D000000000000000000000000000000000000B
:1015E00000000000000000000000000000000000FB
:1015F00000000000000000000000000000000000EB
:1016000000000000000000000000000000000000DA
:101610000000000000000000000000006400640002
:10162000640064006400640064006400640064009A
:10163000640064006400640064006400640064008A
:1016400064006400640064006400640064000000DE
:10165000000000000000000000000000000000008A
:10166000000000000000000000000000000000007A
:10167000000000000000000000000000000000006A
:10168000000000000000000000000000000000005A
:10169000000000000000000000000000000000004A
:1016A000000000000000000000000000000000003A
:1016B0000000000000000000000000006400640062
:1016C00064006400640064006400640064006400FA
:1016D00064006400640064006400640064006400EA
:1016E000640064006400640064006400640000003E
:1016F00000000000000000000000000000000000EA
:1017000000000000000000000000000000000000D9
:1017100000000000000000000000000000000000C9
:1017200000000000000000000000000000000000B9
:081F4800330EE66EE66A780E26
:101F5000E66E35EC14F0E552E552E552F40EE66E0D
:101F6000D9EC14F0E552B89AB8981200D9CFE6FF30
:101F7000E1CFD9FF080EE1268EDBD890155004E69C
:101F8000640E145C000E15583CE3640E9CDB93DB7E
:101F900008C0DEFF09C0DDFFDECF14F0DDCF15F095
:101FA000300E1426000E152214C0DEFF15C0DDFF12
:101FB00072DB640E68DA0A0E146E156A060EDBCF49
:101FC00008F0070E3CDA640E5EDA060EDBCF14F082
:101FD000070EDBCF15F00A0E0BDB040E04C0DBFF8F
:101FE000050E05C0DBFF300EE76E040EDBCF14F0EC
:101FF000050E6FDAA1DADFCFE6FFACEC14F0E552A4
:102000000CD00A0E60DB1BDA0A0E3DDA300EE76EEA
:10201000060EDBCF14F0070E5CDA8EDA020EDBCF91
:10202000E6FFACEC14F0E55287DA040EDBCFE6FFF6
:10203000ACEC14F0E552200EE66EACEC14F0E55278
:10204000080EE15C02E2E16AE552E16EE552E7CF9B
:10205000D9FF1200D9CFE6FFE1CFD9FF440EE12628
:10206000010EDE6EDD6A020EDB6A030EDB6A040E11
:10207000DB68050EDB68010EF36E060EF3CFDBFFA7
:10208000070EDB6A080EDB6A090EDB6A0A0EDB68E4
:102090000B0EDB68010EF36E0C0EF3CFDBFF0D0EA3
:1020A000DB6A0E0EDB6A0F0EDB6A100EDB68110EA8
:1020B000DB68120EDB68130EDB68140EDB68150E8E
:1020C000DB68160EDB68170EDB68180EDB6A190E6C
:1020D000DB6A1A0EDB6A1B0EDB6A1C0EDB6A1D0E46
:1020E000DB6A010EF36E1E0EF3CFDBFF1F0EDB6A01
:1020F000010EF36E200EF3CFDBFF210EDB6A010E23
:10210000F36E220EF3CFDBFF230EDB6A03DA280E19
:10211000DB6A290EDB6A2E0EDB6A2F0EDB6AA7D97B
:10212000D890155004E6320E145C000E155801E3E9
:1021300057D1300EDB6A310EDB6A300EDBCF14F084
:10214000310EECDA04E6500E145C000E155801E373
:102150003FD18DD91406000E155AC3DA320ED6D9E6
:10216000330EA0DA1406000E155A2EDA340ECED92C
:10217000350E98DA1406000E155AB6DA360EC6D9A0
:10218000370E90DAAEDA380EC1D9390E8BDA1CDA96
:102190003A0EBCD93B0E86DAA7DA3C0EB7D93D0E13
:1021A000A6DA9FDA3E0EB2D93F0EA1DA0DDA400E62
:1021B000ADD9410E9CDA98DA420EA8D9430EF5CF7C
:1021C000DBFF2A0EDB6A2B0EDB6A2A0EDBCF14F054
:1021D0002B0EA4DA04E6030E145C000E15582AE256
:1021E0002C0EDB6A2D0EDB6A2C0EDBCF14F02D0ECD
:1021F00095DA04E6030E145C000E155815E2D0D9EA
:102200000001800E151401E0D5D9CAD9153406E2B3
:102210001450FF08000E155401E2CCD92C0EDB2A15
:102220002D0EE2E3DB2AE0D72A0EDB2A2B0ECDE3CC
:10223000DB2ACBD76FD9320EDBCF08F0330EDBCFE2
:1022400009F0DECF0DF0DDCF0EF0B9EC13F006C0D3
:1022500024F007C025F0020EDBCF08F0030ED3D91F
:10226000040EDBCF08F0050ED7D9060EDBCF08F041
:10227000070EDBD9080EDBCF08F0090EDFD90A0EF6
:10228000DBCF08F00B0EE3D90C0EDBCF08F00D0E00
:10229000E7D90E0EDBCF08F00F0EEBD9100EDBCF17
:1022A00008F0110EEFD9240E14C0DBFF250E15C067
:1022B000DBFF120EDBCF08F0130EDBCF09F0320E7E
:1022C000DBCF0DF0330EAFD806C024F007C025F0E9
:1022D000140EDBCF08F0150E96D9160EDBCF08F0E2
:1022E000170E9AD9180EDBCF08F0190E9ED91A0EC8
:1022F000DBCF08F01B0EA2D91C0EDBCF08F01D0EA1
:10230000A6D91E0EDBCF08F01F0EAAD9200EDBCFF8
:1023100008F0210EAED9220EDBCF08F0230EB2D981
:10232000260E14C0DBFF270E15C0DBFF240EDBCF0B
:1023300014F0250EDBCF15F00001800E15140DE012
:1023400008680968240EDBCF0DF0250E6CD8240E2A
:1023500006C0DBFF250E07C0DBFF260EDBCF14F027
:10236000270EDBCF15F00001800E15140DE0086874
:102370000968260EDBCF0DF0270E55D8260E06C0B5
:10238000DBFF270E07C0DBFF260EDBCF16F0270E84
:10239000DBCF17F0240EDB501624146E250EDB5015
:1023A0001720156E280E14C0DBFF290E15C0DBFFA9
:1023B000280EDBCFE6FF290EDBCFE6FFD7DDE552A7
:1023C000E552300EDB2A310E01E2B7D6DB2AB5D654
:1023D00062D82E0EDB2A2F0E01E2A1D6DB2A9FD671
:1023E0005AD8440EE15C02E2E16AE552E16EE55240
:1023F000E7CFD9FF1200100EE66E08EC15F0E5529B
:10240000800E946EA1DD26DEFFD7A00E1502F3CF5D
:1024100015F01402F3CF14F0F4501526080E14260C
:10242000000E15221200DBCF0EF0B9EF13F0010EF3
:10243000E76E50D9E7501626000E1722CED03BD9B2
:10244000020E08C0DBFF030E09C0DBFF300EE76E93
:10245000020EDBCF14F0030EDBCF15F027D9020EEE
:1024600014C0DBFF030E15C0DBFF4BEF13F02E0E85
:10247000DBCF14F02F0EDBCF15F012002BD9160690
:10248000000E175AAAD0B4D8060E04C0DBFF070E00
:1024900005C0DBFF12002C0E146E2A0E156E166A94
:1024A00014C0E6FFE66E16C0E6FF7AEC14F0E552C3
:1024B000E552E552120018500624166E19500720F6
:1024C000176E120016500624146E17500720156E52
:1024D0001200DBCF15F0EAD8040E14C0DBFF050EA6
:1024E00015C0DBFF120014500624F66E15500720AD
:1024F000F76E0900120016500624E96E17500720E7
:10250000EA6EEECF14F0EFCF15F01200F5CFDBFF3F
:102510000A001200240EDB6A250EDB6A260EDB6A37
:10252000270EDB6A120014500624E96E15500720AE
:10253000EA6EEE6AED6A1200640EE66E08EC15F0C3
:10254000E5521200020E086E096A12002450062499
:10255000226E25500720236E120022500624206E82
:1025600023500720216E1200205006241E6E215099
:1025700007201F6E12001E5006241C6E1F500720DD
:102580001D6E12001C5006241A6E1D5007201B6E73
:1025900012001A500624186E1B500720196E1200E4
:1025A000D950320F186EDACF19F0A8D884DFAFD81F
:1025B0007BEF12F0D950320F166EDACF17F09ED89B
:1025C00081DFA5D893EF12F020DFBCDF300EDBCF28
:1025D0000DF0310E28DF73EF12F0D8901636173653
:1025E00014501624F66E15501720F76E09001200CD
:1025F0000D6E0E6A14C008F015C009F093EC13F0CC
:1026000005C015F01200DBCF09F0340EDBCF0DF062
:10261000350E09DFA6EF12F0DBCF09F0360EDBCF67
:102620000DF0370E00DFADEF12F0DBCF09F0380E02
:10263000DBCF0DF0390EF7DEB4EF12F0DBCF09F08F
:102640003A0EDBCF0DF03B0EEEDEBBEF12F0DBCF30
:1026500009F03C0EDBCF0DF03D0EE5DEC2EF12F0CF
:10266000DBCF09F03E0EDBCF0DF03F0EDCDEC9EF15
:1026700012F0DBCF09F0400EDBCF0DF0410ED3DEC0
:102680005BEF12F0DBCF09F0420EDBCF0DF0430E13
:10269000CADE62EF12F0FD0EDBCF14F0FE0EDBCFD0
:1026A00015F01200F5CFDBFF37EF12F0E7501426DC
:1026B000000E15221200DBCF09F014C00DF015C07A
:1026C0000EF093EF13F0146E156AFD0EDBCF08F0D9
:1026D000FE0E1200300EDBCF16F0310EDBCF17F0FE
:1026E000120093DE3EEF12F090DE17EF12F0F5CFFE
:1026F000DBFF010EE76EBBDE56EF13F0060E086E31
:10270000096A2A0EDBCF0DF02B0E13EF12F01ADF41
:102710002C0EDBCF0DF02D0E13EF12F0DBCF15F0EA
:06272000D89015501200D4
:0A272600006A0EAE9CEF13F00D6C7C
:102730000E1EE86A0E22001E09AEA4EF13F0086C0C
:10274000091EE86A0922001EC3EC14F009BEB4EFAA
:1027500013F000AE000C086C091EE86A0922046C34
:10276000051EE86A0522000C00BEABEF13F00188DD
:10277000FF0C09C013F008C012F008500D02F4CF8E
:1027800007F0F3CF06F009500E02F4CF09F0F3CFB3
:1027900008F00D02F3500726F4500822E86A0922D7
:1027A00012500E02F3500726F4500822E86A09225C
:1027B0000EAEDFEF13F01250085E1350095A13AE3D
:0C27C000000C0D50085E0E50095A000C71
:0427CC00060EF66E91
:1027D000000EF76E000EF86E00010900F550656FEF
:1027E0000900F550666F03E1656701D03DD009002F
:1027F000F550606F0900F550616F0900F550626F88
:1028000009000900F550E96E0900F550EA6E09006B
:1028100009000900F550636F0900F550646F090065
:102820000900F6CF67F0F7CF68F0F8CF69F060C025
:10283000F6FF61C0F7FF62C0F8FF0001635302E1D9
:10284000645307E00900F550EE6E6307F8E2640791
:10285000F9D767C0F6FF68C0F7FF69C0F8FF00014D
:0A2860006507000E665BBFD712008B
:06286A00D9CFE6FFDACF32
:10287000E6FFE1CFD9FFE2CFDAFFAC6AAB6AFD0E2B
:10288000DBB0AC88DBA202D0AC8CAB8CDBB4AC8E02
:10289000DBA602D0AB8801D0AB8ADBB8AC849E98B3
:1028A000DBBAAB86DBAC02D09D8A01D09D9A9E9AA2
:1028B000DBAE02D09D8801D09D98FB0EDB50AF6E41
:1028C000FB0EFC0EDBCF15F015C014F0156A14508A
:1028D000B06EAC8AAB8E949C948EAC50100B04E01E
:1028E000AC50800B01E1948CE552E5CFDAFFE7CFE5
:0428F000D9FF1200FA
:0C28F400D9CFE6FFDACFE6FFE1CFD9FF35
:10290000E2CFDAFFACA2FED7FB0EDBCFF6FFFC0E68
:10291000DBCFF7FFFD0EDBCFF8FF0800F550E66ECA
:10292000ACEC14F0E552D950FB0FE96EFF0EDA2043
:10293000EA6EEFCFF6FFEE2AEFCFF7FF000EEE22A2
:10294000EFCFF8FFEE220800F550DCE1E552E5CFCD
:08295000DAFFE7CFD9FF120006
:08295800D9CFE6FFDACFE6FF5C
:10296000E1CFD9FFE2CFDAFFACAC04D0AC900001EC
:102970006AB3AC80FD0EDB50AD6EE552E5CFDAFFF9
:06298000E7CFD9FF1200B1
:0A298600056A046A100EE76ED8908F
:1029900008360936043605360D50045C0E500558CD
:1029A00005E30D50045E0E50055A082AE72EF0D7B5
:0229B000120013
:0E29B200D9CFE6FFDACFE6FFE1CFD9FFE2CFC3
:1029C000DAFFFD0EDB50B86EE552E5CFDAFFE7CF58
:0429D000D9FF120019
:0C29D400000EF36E00EE00F0080E01D8BB
:1029E0001200EA6002D0EE6AFCD7F350E9601200F0
:0429F000EE6AFCD7B8
:0C29F40013EE00F023EE00F0F86A019CE6
:102A0000E6EC13F018EC15F0FBEC11F0FBD712001C
:102A1000FF0EE350266E1B0E00D001D0200EE76E95
:0C2A2000E72EFED7262EFAD700D01200B9
:032A2C000D0A0090
:022A3000120092
:020000040030CA
:010001000CF2
:010002001FDE
:010003001EDE
:0100050001F9
:010006008178
:00000001FF
